:100000000C94FC000C9424010C9424010C94DF0E3D
:100010000C94030F0C94270F0C9424010C942401CE
:100020000C9424010C9424010C9424010C942401BC
:100030000C9424010C94710C0C9424010C94240154
:100040000C94C8110C9424010C9454140C9497141F
:100050000C9424010C9424010C9424010C9424018C
:100060000C9424010C9424011D0B200B2D0B310B3F
:10007000350B390B3D0B07634236B79BD8A71A39AE
:10008000685618AEBAAB558C1D3CB7CC5763BD6DE6
:10009000EDFD753EF6177231BF000000803F08008D
:1000A0000000BE922449123EABAAAA2ABECDCCCCF7
:1000B0004C3E00000080BEABAAAAAA3E0000000091
:1000C000BF000000803F0000000000084178D3BB63
:1000D0004387D1133D190E3CC3BD4282AD2B3E6810
:1000E000EC8276BED98FE1A93E4C80EFFFBE01C401
:1000F000FF7F3F000000000000C20100010011006E
:1001000011000C0000E100000A002500250021007C
:10011000009600001900390039003600127A0000FC
:100120001F004600460044008070000022004D0081
:100130004D004A00004B000036007500750072004B
:10014000403800004A009C009C0099008025000077
:100150007200EC00EC00E900C0120000E900DA01D6
:10016000DA01D70160090000D701B603B603B30373
:10017000B0040000B3036E076E076B07580200005F
:100180006E07DC0EDC0ED80E2C010000DC0EC11D4B
:10019000C11DBE1D0000000700020100000304068F
:1001A0000000000000000000010204081020408050
:1001B00001020408102001020408102004040404B1
:1001C0000404040402020202020203030303030301
:1001D0000000000023002600290000000000250088
:1001E00028002B0000000000240027002A008901BD
:1001F000050C5315EF15B10111241FBECFEFD8E048
:10020000DEBFCDBF11E0A0E0B1E0E2E8F6E302C05E
:1002100005900D92A23EB107D9F724E0A2EEB1E01D
:1002200001C01D92A136B207E1F711E0C6EFD1E09F
:1002300004C02297FE010E94DA1ACE3ED107C9F708
:100240000E941E170C94341B0C940000EF92FF9236
:100250000F931F93CF93DF938A0179010197EC01EC
:10026000CC0FDD1FC80FD91FAB016C2F83E192E0CB
:100270000E94A60C6C2F6F5FA80183E192E00E94A0
:10028000A60C6C2F6E5FA70183E192E00E94A60C82
:1002900083E192E0DF91CF911F910F91FF90EF905A
:1002A0000C94EA0CCF93DF93C0E0D0E0BE0185E070
:1002B0000E94A212BE0186E00E94A21263E070E0DA
:1002C00080E090E00E9441122196C11581E0D8079C
:1002D00069F7DF91CF9108950F931F93CF93DF9329
:1002E0008C018CE092E00E94FD0BEC01B8018CE0E7
:1002F00092E00E94EE0B9C014AE051E0BE018CE0CE
:1003000092E00E94BF0BCE01DF91CF911F910F9120
:1003100008950F9300E020E040E060E086E092E086
:100320000E94E31520E042E06FE08AEE91E00E9437
:10033000990F1092E5011092E4018EEA91E09093FA
:10034000E3018093E2018DEA92E09093E7018093CC
:10035000E6018FEF9FEF9093E9018093E8010F9101
:1003600008958AEE91E00C949A106EEF8AEE91E077
:100370000E946D0E68E58AEE91E00E946D0E6EEFB0
:100380008AEE91E00E946D0E68E48AEE91E00E9490
:100390006D0E6AE070E080E090E00C9441120F93E3
:1003A0001F93CF93DF931F92CDB7DEB7082F162F81
:1003B0006EEF8AEE91E049830E946D0E60ED8AEE49
:1003C00091E00E946D0E602F8AEE91E00E946D0E0A
:1003D000612F8AEE91E00E946D0E4981642F8AEEB2
:1003E00091E00E946D0E6AE070E080E090E00F9076
:1003F000DF91CF911F910F910C944112AF92BF9258
:10040000CF92DF92EF92FF920F931F93CF93DF93E0
:10041000EC01009709F443C143E151E0BC018CE0D9
:1004200092E00E94870B009709F438C1FC01818596
:100430009285009709F0DAC04BE151E0BE018CE0F3
:1004400092E00E94870B6C010E94B5014FEF6FEFA5
:100450008FEF0E94CF0165E271E08AEE91E00E9489
:100460003C16F601618572858AEE91E00E943C1689
:10047000C0E0D0E0E12CF12CAA24A394B12C84E0BC
:100480000E949913892BD9F0B1100AC02FEF3FE0D9
:100490004FEF5FE06FEF7FE08DE090E00E9426017C
:1004A000F5E0EF0EF11C88EBE8168BE0F806ECF5B2
:1004B000C0E0D0E0BB24B39400E010E046C0EF28D9
:1004C00069F02FEF3FE040E050E060E070E08DE049
:1004D00090E00E94260102E010E002C000E010E07F
:1004E000C039E1E0DE07E4F020E030E0AA2061F06E
:1004F0004FEF5FE060E070E08DE090E00E94260149
:10050000C0E0D0E0A12C0CC040E050E060E070E022
:100510008DE090E00E942601C0E0D0E0AA24A394E0
:100520002596E12CF12CB12C10C020E030E040E009
:1005300050E06FEF7FE08DE090E00E942601C0E088
:10054000D0E0BB24B39401E010E065E070E080E00F
:1005500090E00E9441120115110509F490CF01307D
:10056000110511F50E94B50140E060E08FEF0E9497
:10057000CF0166E371E08AEE91E00E943C1664ECE4
:1005800079E080E090E00E9441124FEF6FEF8FEF33
:100590000E94CF010E94B50167E471E08AEE91E00C
:1005A0000E943C1681E07CC00E94B5014FEF60E0E4
:1005B00080E00E94CF0168E571E08AEE91E00E9440
:1005C0003C16F601618572858AEE91E00E943C1628
:1005D00061E08CE00E94631364EF71E080E090E0E2
:1005E0000E9441120E94520182E05AC0813091055E
:1005F000D1F54BE651E0BE018CE092E00E94870B02
:10060000EC01009709F44AC04FE651E0BC018CE0D0
:1006100092E00E94870B8C0143E751E0BE018CE021
:1006200092E00E94870B7C0145E751E0BE018CE01F
:1006300092E00E94870B6C0147E751E0BE018CE01D
:1006400092E00E94870BFC0121853285F6014185ED
:100650005285F70161857285F801818592850E9436
:10066000260183E61DC00397C9F420E030E040E096
:1006700050E060E070E08DE090E00E9426014FEFD6
:100680006FEF8FEF0E94CF010E94B50167E471E028
:100690008AEE91E00E943C160E94520102C080E066
:1006A00090E0DF91CF911F910F91FF90EF90DF903D
:1006B000CF90BF90AF9008950F931F93CF93DF9388
:1006C00082EE91E00E94C204882321F082EE91E044
:1006D0000E946D0882EE91E00E94C204882371F1AD
:1006E00062EE71E08CE092E00E94420A8C010E946E
:1006F000FE01EC01B8018CE092E00E944B0582EE15
:1007000091E00E948E08C336D105C1F0CE010E944F
:100710006C01EC0142EE51E0BC018CE092E00E94E1
:10072000460B8DEA92E00E944516BE018CE092E0F5
:10073000DF91CF911F910F910C944B05DF91CF91D9
:100740001F910F910895409100015091010166277A
:1007500057FD6095762F8AEE91E00E94C90F6EEFEB
:100760008AEE91E00E946D0E61ED8AEE91E00E94AA
:100770006D0E60E18AEE91E00E946D0E62E08AEEFD
:1007800091E00E946D0E6AE070E080E090E00E94CF
:1007900041126EEF8AEE91E00E946D0E60E58AEEE6
:1007A00091E00E946D0E68EC8AEE91E00E946D0E61
:1007B0006AE070E080E090E00E9441126EEF8AEE05
:1007C00091E00E946D0E69E98AEE91E00E946D0E43
:1007D0006FEF8AEE91E00E946D0E6AE070E080E0BB
:1007E00090E00E9441126EEF8AEE91E00E946D0E41
:1007F0006BE48AEE91E00E946D0E6EEF8AEE91E05E
:100800000E946D0E64E58AEE91E00E946D0E6AE032
:1008100070E080E090E00E94411240E060E08FEFE5
:100820000E94CF0169E771E08AEE91E00E943C16D8
:100830006AE871E08AEE91E00E943C1664EF71E094
:1008400080E090E00E94411240E06FEF80E00E9463
:10085000CF0164EF71E080E090E00E9441124FEF21
:1008600060E080E00E94CF0164EF71E080E090E002
:100870000E9441120C94B50160E070E083E192E0C7
:100880000E941C0D4091020150910301662757FD03
:100890006095762F8DEA92E00E94D21461E085E0A7
:1008A0000E942A1361E086E00E942A1360E084E03F
:1008B0000E942A1361E08CE00E942A1360E08CE021
:1008C0000E9463130E94A3034FEF6FEF8FEF0E940C
:1008D000CF010E94B50167E471E08AEE91E00E94C9
:1008E0003C1682EE91E00C948E08FC018481958187
:1008F0000895772767FD7095FC01778366830895D7
:10090000CF93DF931F92CDB7DEB7DC01ED91FC9161
:100910000484F585E02D69830995DC01ED91FC9156
:100920000190F081E02D69810F90DF91CF910994C2
:10093000CF92DF92EF92FF920F931F93CF93DF93AB
:100940007C016A01EB0100E010E00C151D0581F04F
:10095000D701ED91FC910680F781E02DC701099543
:100960008F3FBFEF9B0721F089930F5F1F4FEDCFA4
:10097000C801DF91CF911F910F91FF90EF90DF9011
:10098000CF900895CF93DF93EC018E819F810196E4
:1009900029F5E881F9810484F585E02DCE010995DA
:1009A000DC01ED91FC910480F581E02D0995892B06
:1009B00099F0E881F9810680F781E02DCE01099553
:1009C0008132910534F3E881F9810284F385E02DC9
:1009D000682FCE01099502C080E001C081E0DF915F
:1009E000CF910895CF92DF92EF92FF92CF93DF9352
:1009F000EC018E819F818F3F2FEF920759F02FEFEF
:100A00003FEF3F832E83DF91CF91FF90EF90DF90F8
:100A1000CF9008950E9412126B017C0184EFC80EE2
:100A200081E0D81EE11CF11CE881F9810484F58580
:100A3000E02DCE010995DC01ED91FC910480F5815A
:100A4000E02D0995892B39F40E9412126C157D0551
:100A50008E059F0548F3E881F9810484F585E02D32
:100A6000CE010995DC01ED91FC910680F781E02D26
:100A7000DF91CF91FF90EF90DF90CF9009948DE0C0
:100A800090E00E94A110009729F02DE0FC01119246
:100A90002A95E9F70895EF92FF920F931F93CF9352
:100AA000DF938C01EB01209709F1EA80FB808885B8
:100AB00087FD08C06E817F816115710519F0C8013D
:100AC0000E944B058885843031F489859A8500978A
:100AD00011F00E94391188819981009711F00E94CC
:100AE0003911CE010E943911E701DDCFDF91CF919D
:100AF0001F910F91FF90EF9008952F923F924F9288
:100B00005F926F927F928F929F92AF92BF92CF929D
:100B1000DF92EF92FF920F931F93CF93DF9300D05A
:100B20001F92CDB7DEB78C011B01DC01ED91FC916A
:100B30000680F781E02D09959B838A83019619F43D
:100B40008FEF9FEF42C1EA81FB81BD9781F4D8010D
:100B5000ED91FC910680F781E02DC80109959B83FA
:100B60008A83019669F388248A94982C03C0882488
:100B70008394912C8A819B81C097C12CD12C0A9798
:100B8000D0F49AE0F92EF601FE9E6001FF9ED00C93
:100B900011248A819B81C097C80ED91ED801ED917E
:100BA000FC910680F781E02DC80109959B838A831B
:100BB000C0970A9740F3EA81FB81EE32F10599F084
:100BC000CF018F7D8534910571F0C89CC001C99C0F
:100BD000900DD89C900D1124D1011A969C938E9360
:100BE000199782E0E5C0B601882777FD8095982F98
:100BF0000E942A186B017C01EA81FB81BE97C9F52E
:100C0000D801ED91FC910680F781E02DC80109958E
:100C10009B838A83A12CB12C20E030E040E251E498
:100C2000C701B6010E94DA186B017C016A817B81E1
:100C300060537109882777FD8095982F0E942A18A4
:100C40009B01AC01C701B6010E942C176B017C010E
:100C5000B1E0AB1AB108D801ED91FC910680F781A3
:100C6000E02DC80109959B838A83C0970A97A0F25B
:100C700002C0A12CB12C8A819B818F7D8534910586
:100C800009F048C0D801ED91FC910680F781E02D74
:100C9000C80109959B838A838B9761F4D801ED91F4
:100CA000FC910680F781E02DC80109959B838A831A
:100CB000B1E00FC0EA81FB81BD9769F4D801ED91E5
:100CC000FC910680F781E02DC80109959B838A83FA
:100CD000BFEFB98302C0E1E0E983612C712C8AE0A7
:100CE000582E8A819B81C0978A309105B8F4930170
:100CF000529E3001539E700C1124680E791ED8014B
:100D0000ED91FC910680F781E02DC80109959B8348
:100D10008A83E7CFB1E0B983612C712CB4018827B5
:100D200077FD8095982F0E942A18A70196010E94AE
:100D3000DA186B017C01B501882777FD8095982F23
:100D40000E942A184B015C01B301882777FD80952A
:100D5000982F0E942A182B013C01E9816E2F7727DA
:100D600067FD7095872F972F0E942A189B01AC0171
:100D7000C301B2010E94DA189B01AC01C501B401A4
:100D80000E942C179B01AC0160E070E080E291E4CE
:100D90000E943D199B01AC01C701B6010E94DA18FF
:100DA000D10119966D937D938D939C931C9783E04D
:100DB00018968C93D801ED91FC910284F385E02D77
:100DC0006A81C801099580E090E00F900F900F9024
:100DD000DF91CF911F910F91FF90EF90DF90CF9017
:100DE000BF90AF909F908F907F906F905F904F904B
:100DF0003F902F9008956115710539F0FB016185D1
:100E000072854AE050E00C94FC1680E090E0089572
:100E10008F929F92AF92BF92CF92DF92EF92FF920A
:100E20000F931F93CF93DF93EC016115710509F4C4
:100E300069C0FB01C184D284E384F48420E030E003
:100E4000A901C701B6010E94901787FF09C064E994
:100E500071E0CE010E943C16F7FAF094F7F8F09496
:100E6000C701B6010E94FC174B015C012AE030E08B
:100E7000AB01BC01CE010E94041766E971E0CE010E
:100E80000E943C16C501B4010E9428189B01AC01C8
:100E9000C701B6010E942B172CEA35EC47EA56E34E
:100EA0000E942C176B017C0105E010E020E030E08F
:100EB00040E251E4C701B6010E94DA186B017C01DF
:100EC0000E94FC174B015C014AE050E0CE010E94F9
:100ED0001817B40180E090E00E9428189B01AC0133
:100EE000C701B6010E942B176B017C0120E030E0A6
:100EF000A9010E949017882329F0015011090115BA
:100F00001105A1F680E090E0DF91CF911F910F9144
:100F1000FF90EF90DF90CF90BF90AF909F908F9019
:100F20000895EF92FF920F931F93CF93DF938C015D
:100F30007B01DC01ED91FC910680F781E02D0995A4
:100F40008297B9F484E0F70180870E94100CEC01CD
:100F5000009779F0D801ED91FC910680F781E02DA2
:100F6000C80109958F3FBFEF9B0731F4CE010E9466
:100F70006C0C8FEF9FEF56C08232910509F44AC086
:100F8000803291050CF446C08C35910511F0BE01FC
:100F90003EC0D801ED91FC910680F781E02DC8019B
:100FA00009958F3FBFEF9B0709F38236910539F111
:100FB0005CF48F32910501F18C359105D1F0829767
:100FC00049F6BE0182E223C08E369105D9F03CF489
:100FD0008636910509F0BECFBE018CE018C082377D
:100FE000910599F08437910509F0B4CFBE0189E0ED
:100FF0000EC0BE018CE50BC0BE018FE208C0BE0171
:1010000088E005C0BE018AE002C0BE018DE00E94FA
:101010002D0CA0CFCE010E94410CF7019287818751
:1010200080E090E0DF91CF911F910F91FF90EF90C2
:1010300008950F931F93CF93DF93EC018B0168E921
:1010400071E00E943C1601151105B9F1F80161919A
:101050008F01662391F1603220F0623211F06C351D
:1010600041F56CE5CE010E943E16F8013197808172
:101070008C30D1F044F48930D9F08A30B9F088301E
:1010800029F762E616C0823259F024F48D30F1F669
:1010900062E70FC08F3231F08C35C1F66CE509C0C4
:1010A00062E207C06FE205C066E603C06EE601C0FB
:1010B00064E7CE010E943E16C9CF62E2CE010E94D3
:1010C0003E1680E090E0DF91CF911F910F9108953F
:1010D000FB01618572850C941908CF93DF93EC01B5
:1010E000E881F9810680F781E02DCE0109958F3FD7
:1010F0002FEF920771F0E881F9818132910594F325
:101100000284F385E02D682FCE01099580E090E000
:1011100002C08FEF9FEFDF91CF910895CF93DF93C0
:10112000EC01E881F9810680F781E02DCE01099577
:101130000196B9F78FEF9FEFDF91CF9108959F92BE
:10114000AF92BF92CF92DF92EF92FF920F931F93D5
:10115000CF93DF93EC016B015A01E881F98106809E
:10116000F781E02D09958B37910519F08FEF9FEFEF
:1011700072C086E0F6018087CE010E946D08E8818A
:10118000F9810680F781E02DCE0109958D37910513
:1011900009F45FC0E881F9810284F385E02D682FAE
:1011A000CE01099599249A940E943F058C010097DD
:1011B000E9F2992021F0F6019783868306C0F701B2
:1011C00093838283FC01F582E482CE010E946D0844
:1011D000B801CE010E949107019641F2CE010E9412
:1011E0006D08F8018185928591838083128611862E
:1011F000E881F9810680F781E02DCE010995CA9733
:1012000009F0B4CFCE010E946D08A501B801CE014E
:101210000E943709019609F4A9CFCE010E946D08FA
:10122000E881F9810680F781E02DCE010995912CA6
:1012300078018C32910509F4B7CF21E030E08D3789
:10124000910511F420E030E088279927821B930B49
:1012500002C080E090E0DF91CF911F910F91FF904D
:10126000EF90DF90CF90BF90AF909F900895AF9296
:10127000BF92CF92DF92EF92FF920F931F93CF9383
:10128000DF9300D000D01F92CDB7DEB78C016B0189
:101290005A010E946D08019609F4B4C0D801ED917D
:1012A000FC910680F781E02DC80109957C018F3FF4
:1012B000BFEF9B0709F4A6C0D801ED91FC91028411
:1012C000F385E02D682FC8010995B2E2EB16F10411
:1012D00029F4B601C8010E94910796C0EDE2EE160E
:1012E000F10421F0C701C0970A9728F4B601C8019C
:1012F0000E947D0589C0FBE5EF16F10431F4A501DC
:10130000B601C8010E94460A7FC02BE7E216F1042D
:1013100031F4A501B601C8010E949F0875C08EE690
:10132000E816F10411F519821A821B821C82D80179
:10133000ED91FC910084F185E02D44E050E0BE0188
:101340006F5F7F4FC8010995049709F05BC044E0C7
:1013500050E06AE971E0CE0101960E94261B0097D9
:1013600009F050C0F60110864FC0F6E6EF16F10402
:1013700019F5CE0101967C0185E0D7011D928A9571
:10138000E9F7D801ED91FC910084F185E02D45E06D
:1013900050E0B701C80109950597A1F545E050E077
:1013A0006FE971E0C7010E94261B009759F521E003
:1013B000F6012087118628C0F4E7EF16F10411F535
:1013C00019821A821B821C82D801ED91FC91008443
:1013D000F185E02D44E050E0BE016F5F7F4FC80112
:1013E0000995049779F444E050E065EA71E0CE0194
:1013F00001960E94261B009729F421E0F601208720
:10140000218702C08FEF9FEF0F900F900F900F90EA
:101410000F90DF91CF911F910F91FF90EF90DF9090
:10142000CF90BF90AF900895CF92DF92EF92FF924E
:101430000F931F93CF93DF937C018B016A0161159A
:10144000710599F00E943F05EC01009771F0C80109
:101450000E946D08A601BE01C8010E9437090196CD
:1014600039F4BE01C7010E944B0580E090E001C045
:10147000CE01DF91CF911F910F91FF90EF90DF9000
:10148000CF90089540E050E00C94140A9F92AF92E0
:10149000BF92CF92DF92EF92FF920F931F93CF9361
:1014A000DF93EC016B015A01E881F9810680F78135
:1014B000E02D09958B35910519F08FEF9FEF53C003
:1014C00085E0F6018087CE010E946D08E881F981F0
:1014D0000680F781E02DCE0109958D35910509F43F
:1014E00040C0E881F9810284F385E02D682FCE01A8
:1014F000099599249A940E943F058C010097E9F27E
:10150000992021F0F6019783868306C0F701938323
:101510008283FC01F582E482CE010E946D08A50160
:10152000B801CE010E943709892B39F6CE010E94FD
:101530006D08E881F9810680F781E02DCE010995DB
:10154000912C78018C329105B1F221E030E08D359B
:10155000910511F420E030E088279927821B930B36
:1015600002C080E090E0DF91CF911F910F91FF903A
:10157000EF90DF90CF90BF90AF909F9008950F9322
:101580001F93CF93DF93EC0161157105D1F1FB013E
:10159000068117816BE7CE010E943E16019619F471
:1015A0008FEF9FEF30C001151105E1F0F801608168
:1015B0007181CE010E941908019691F36AE3CE0170
:1015C0000E943E16019661F3B801CE010E94080BFD
:1015D000019631F3F801028113810115110519F308
:1015E0006CE2D9CF6DE7CE010E943E1621E030E0DB
:1015F000019611F020E030E088279927821B930B99
:1016000002C080E090E0DF91CF911F910F9108958B
:101610000F931F9361157105A1F1FB014085042F04
:10162000112707FD1095212F312F0730110548F59F
:10163000F801EC5CFF4F0C94D81A6AE971E006C01F
:10164000FB012185222331F065EA71E01F910F91A2
:101650000C943C166FE971E0F9CF1F910F910C9437
:10166000FB061F910F910C9408071F910F910C948A
:1016700068081F910F910C94490B1F910F910C94C6
:10168000BF0A80E090E01F910F910895CA010C9469
:10169000080B0F931F93CF93DF938C016115710596
:1016A00079F1FB01C681D7816BE50E943E16019658
:1016B00071F48FEF9FEF26C0BE01C8010E94080B96
:1016C0000196B9F30A80DB81C02D209719F4209789
:1016D00099F707C06CE2C8010E943E160196B9F75F
:1016E000E8CF6DE5C8010E943E1621E030E001968A
:1016F00011F020E030E088279927821B930B02C06D
:1017000080E090E0DF91CF911F910F9108950F93AA
:101710001F93CF93DF938A01FB01C681D781209766
:1017200059F0B801888199810E940C1B892B21F006
:101730000A80DB81C02DF3CFCE01DF91CF911F91C5
:101740000F910895DB011696ED91FC9117974115C5
:101750005105A1F0309729F417965C934E93169794
:10176000089582819381009711F0FC01FACF538391
:101770004283DA011596FC93EE9314970895CF9265
:10178000DF92EF92FF920F931F93CF93DF938C0121
:101790007B016A01E9012097C1F088819981009756
:1017A00011F00E943911C6010E94F21A99838883B0
:1017B000AE01B701C801DF91CF911F910F91FF904A
:1017C000EF90DF90CF900C94A20BDF91CF911F91FF
:1017D0000F91FF90EF90DF90CF900895CF93DF931C
:1017E000EB010E943F05009729F022E0FC012087D1
:1017F000D287C187DF91CF9108950E943F0500975E
:1018000019F026E0FC01208708950F9300E020E006
:1018100040E060E08DE092E00E94E3150F910895B2
:1018200086E090E00E94A1100097B1F0EDE5F3E0B2
:10183000DC01ED93FC9320E031E0DF01A9011D9272
:1018400041505040E1F7DC0113963C932E931297E0
:1018500015961C921E9214970895FB0124813581E0
:10186000428153812417350750F4A081B181A20F22
:10187000B31F8C938481958101969583848380E046
:1018800008950F931F93CF93DF93EC018C819D817B
:10189000009741F0E881F981E80FF91F31978081C5
:1018A000882321F0BE0180E00E942D0C8C819D8157
:1018B0000E94A1108C01009749F06DE573E00E9431
:1018C0001F1B19821882CE010E943911C801DF91B5
:1018D000CF911F910F910895009711F00C94391139
:1018E00008951F920F920FB60F9211242F933F93DA
:1018F0004F935F936F937F938F939F93AF93BF9318
:10190000EF93FF9380E28093800010926F0010921B
:101910005F0280915D0290915E02892B31F0789494
:10192000E0915D02F0915E020995FF91EF91BF9108
:10193000AF919F918F917F916F915F914F913F9167
:101940002F910F900FBE0F901F9018958FE2861B5E
:1019500093E0899FF0011124F695E795EB5EFD4F2A
:1019600080FF06C08081807F852B8083418308951E
:10197000CA0124E0969587952A95E1F780838181B5
:101980008F704295407F842B81830895CB0154E072
:10199000969587955A95E1F7262F962F9295907FE9
:1019A000972BE5E1F2E0808391832283339632E046
:1019B000ED35F307C0F30895239A259A229A2D98BE
:1019C00081E08DBD80E58CBD08958EBD0DB407FE10
:1019D000FDCF0895CF93DF9380915F02811128C0DE
:1019E00080E28093800080911402882329F0109275
:1019F0001402C5E1D2E003C02D9A2D98FACF888158
:101A00000E94E50C89810E94E50C8A810E94E50C08
:101A1000239682E0CD35D80790F381E080935F0272
:101A200090EA90938000B09A80936F0080E001C0AC
:101A300081E0DF91CF9108950F931F93CF93DF93B0
:101A400000D0CDB7DEB78C01219A229A539A2A9AF8
:101A500069837A830E94DC0C69817A81C8010E94C3
:101A6000C60CC8010E94EA0CE0E8F0E080E2808346
:101A700010926F0010925F02299A29988083E1E802
:101A8000F0E080E1808381E090E090938900809392
:101A9000880082E090E090938B0080938A0080E041
:101AA00090E2909387008093860083E28093B00059
:101AB000A1EBB0E088E08C931092B40083E08093B7
:101AC000B3008C9181608C93808181608083C80198
:101AD0000F900F90DF91CF911F910F910C94EA0C12
:101AE0002091A2023091A30228173907B9F49091EE
:101AF000600280916102981789F0E0916002F0E045
:101B0000EE59FD4F80812091600230E02F5F3F4F02
:101B10002F7333272093600290E008958FEF9FEF9B
:101B200008952091A2023091A3022817390781F469
:101B30009091600280916102981751F0E0916002EB
:101B4000F0E0EE59FD4F8081992787FD909508952B
:101B50008FEF9FEF08952091A2023091A3022817E2
:101B6000390771F4809161022091600290E0805CFD
:101B70009F4F821B910960E470E00E94A21A0895B1
:101B800080E090E008952091A2023091A3022817EE
:101B9000390739F48FB7F8941092610210926002FD
:101BA0008FBF0895DC015196ED91FC9152972081F1
:101BB00050968C91809582238083089520E0019730
:101BC0002FEF8F3F9207D9F708952091A20230910D
:101BD000A3022817390789F0FC01238D2E7F238F5C
:101BE0002FB7F89410926102109260029093A302B2
:101BF0008093A2022FBF81E0089580E00895EF92C4
:101C0000FF920F931F93CF93DF93EC018B8DEE85A3
:101C1000FF859D8581FF04C08081892329F447C009
:101C20008081892309F043C08B899C890E94DE0D45
:101C300008E010E0EE24E394F12C8D899E890E9447
:101C4000DE0DEE85FF8580819D85892311F0FE28BC
:101C500003C08E2D8095F822EE0C0150110901155C
:101C6000110559F78F89988D0E94DE0D8B8D81FDAE
:101C7000F094809161022091600290E001968F7350
:101C8000992730E08217930779F0E0916102F0E044
:101C9000EE59FD4FF0828091610290E001968F73C2
:101CA00099278093610203C08B8D81608B8FDF91B8
:101CB000CF911F910F91FF90EF900895611102C095
:101CC0000C94D20DDC015196ED91FC91529720813C
:101CD00050968C91282B20830895DF92EF92FF92EB
:101CE0000F931F93CF93DF93EC01E62E898D9A8D8E
:101CF000892B39F481E090E09B838A8380E090E037
:101D00004DC0DFB6F8946B8D66956170CE010E9470
:101D10005E0E898D9A8D05960E94DE0D8B8D08E0F2
:101D200010E0FF24F39481FF19C08F2D8E2121F044
:101D3000CE010E94D20D04C061E0CE010E945E0E71
:101D4000898D9A8D0E94DE0DFF0C0150110901153D
:101D5000110559F7CE010E94D20D19C08F2D8E2189
:101D600029F061E0CE010E945E0E03C0CE010E9408
:101D7000D20D898D9A8D0E94DE0DFF0C0150110944
:101D80000115110559F761E0CE010E945E0EDFBE1C
:101D9000898D9A8D0E94DE0D81E090E0DF91CF91D8
:101DA0001F910F91FF90EF90DF9008958091A20214
:101DB0009091A302009711F00C94FF0D08951F92CB
:101DC0000F920FB60F9211242F933F934F935F936F
:101DD0006F937F938F939F93AF93BF93EF93FF93F3
:101DE0000E94D60EFF91EF91BF91AF919F918F917D
:101DF0007F916F915F914F913F912F910F900FBE07
:101E00000F901F9018951F920F920FB60F921124EA
:101E10002F933F934F935F936F937F938F939F93F2
:101E2000AF93BF93EF93FF930E94D60EFF91EF9174
:101E3000BF91AF919F918F917F916F915F914F91E2
:101E40003F912F910F900FBE0F901F9018951F92EA
:101E50000F920FB60F9211242F933F934F935F93DE
:101E60006F937F938F939F93AF93BF93EF93FF9362
:101E70000E94D60EFF91EF91BF91AF919F918F91EC
:101E80007F916F915F914F913F912F910F900FBE76
:101E90000F901F9018951F93CF93DF93EC01162F8F
:101EA00061E0812F0E942A1361E0812F0E94631359
:101EB000812F90E0FC01E855FE4FE491E88BFC0196
:101EC000E454FE4FE491F0E0EE0FFF1FE652FE4FA8
:101ED000859194919A8B898BDF91CF911F91089571
:101EE0001F93CF93DF93EC01162F60E0812F0E94A8
:101EF0002A138B8D81FD04C061E0812F0E94631342
:101F00001C87812F90E0FC01E855FE4FE491ED879E
:101F1000FC01E454FE4FE491F0E0EE0FFF1FE053AC
:101F2000FE4F859194919F878E87DF91CF911F916E
:101F30000895FF920F931F93CF93DF93EC01F62E3A
:101F4000522F1B821A8208EE13E020E030E00C834F
:101F50001D832E833F8380EC91E0998388831C8AC4
:101F60001B8A1E8A1D8A188E1F8A1A8E198E8B8DC7
:101F70008E7F50FB81F98B8F642FCE010E944B0F17
:101F80006F2DCE01DF91CF911F910F91FF900C9497
:101F9000700F0F931F93CF93DF93EC011A8E198E5E
:101FA000188E1F8A1E8A1D8AA8EFB0E080E090E09C
:101FB000FD01059115912591349104171507260708
:101FC000370709F031C02CE0289FF001299FF00D60
:101FD0001124E450FF4F259134913C8B2B8B2CE046
:101FE000289FF001299FF00D1124E250FF4F259109
:101FF00034913E8B2D8B2CE0289FF001299FF00D12
:102000001124E050FF4F25913491388F2F8B2CE015
:10201000289FF001299FF00D1124EE5FFE4F85915E
:1020200094919A8F898F08C001961C968D309105E6
:1020300009F0BECF1C8A1B8A8F89988D892B09F4E1
:1020400043C08C858631E0F520916800883050F0DF
:1020500091E08E3008F490E081E001C0880F9A95FD
:10206000EAF701C084E0822B809368002C85283039
:1020700038F02E3040F0263148F0E0E0F0E008C0C3
:10208000EDE6F0E005C0EBE6F0E002C0ECE6F0E0E3
:102090003081283030F481E001C0880F2A95EAF7BA
:1020A0000DC0822F90E02E3010F4089701C00E97DB
:1020B00091E001C0990F8A95EAF7892F832B8083DD
:1020C000898D9A8D0E94DE0DCE01DF91CF911F91F7
:1020D0000F910C94E50DFC014485463150F54830D4
:1020E00028F04E3030F4EBE6F0E005C0EDE6F0E02D
:1020F00002C0ECE6F0E05081483040F481E090E02E
:10210000042E01C0880F0A94EAF710C0242F30E093
:102110004E3018F42850310902C02E50310981E0A8
:1021200090E0022E01C0880F0A94EAF7809585237B
:102130008083089520EC31E0FC01318320830C94EE
:102140006B10CF93DF938230910510F482E090E022
:10215000E0915F04F091600420E030E0A0E0B0E0A6
:10216000309739F14081518148175907B8F0481725
:10217000590771F482819381109729F013969C93EB
:102180008E9312972CC09093600480935F0427C0B5
:102190002115310531F04217530718F0A901DB0171
:1021A00001C0EF019A01BD01DF010280F381E02D42
:1021B000D7CF21153105F9F0281B390B2430310513
:1021C00080F48A819B816115710521F0FB01938365
:1021D000828304C09093600480935F04FE01329672
:1021E00044C0FE01E20FF31F819391932250310905
:1021F000398328833AC020915D0430915E04232BFB
:1022000041F4209106013091070130935E04209340
:102210005D0420910401309105012115310541F43F
:102220002DB73EB74091080150910901241B350B91
:10223000E0915D04F0915E04E217F307A0F42E1B19
:102240003F0B2817390778F0AC014E5F5F4F24171A
:10225000350748F04E0F5F1F50935E0440935D04B6
:102260008193919302C0E0E0F0E0CF01DF91CF9144
:102270000895CF93DF93009709F487C0FC0132974C
:1022800013821282C0915F04D0916004209781F480
:1022900020813181280F391F80915D0490915E0467
:1022A0008217930779F5F0935E04E0935D046DC0A7
:1022B000DE0120E030E0AE17BF0750F412964D91DA
:1022C0005C9113979D014115510509F1DA01F3CF96
:1022D000B383A28340815181840F951F8A179B0786
:1022E00071F48D919C911197840F951F02969183A3
:1022F000808312968D919C911397938382832115ED
:10230000310529F4F0936004E0935F043EC0D901E5
:102310001396FC93EE9312974D915D91A40FB51F08
:10232000EA17FB0779F480819181840F951F02964B
:10233000D90111969C938E938281938113969C93DD
:102340008E931297E0E0F0E08A819B81009719F06C
:10235000FE01EC01F9CFCE01029628813981820F6E
:10236000931F20915D0430915E042817390769F4AA
:10237000309729F41092600410925F0402C0138217
:102380001282D0935E04C0935D04DF91CF910895D3
:102390001F920F920FB60F9211242F933F938F939A
:1023A0009F93AF93BF938091A5029091A602A091B5
:1023B000A702B091A8023091A40223E0230F2D3789
:1023C00020F40196A11DB11D05C026E8230F029639
:1023D000A11DB11D2093A4028093A5029093A60293
:1023E000A093A702B093A8028091A9029091AA029B
:1023F000A091AB02B091AC020196A11DB11D8093DA
:10240000A9029093AA02A093AB02B093AC02BF9131
:10241000AF919F918F913F912F910F900FBE0F9091
:102420001F9018952FB7F8946091A5027091A6029D
:102430008091A7029091A8022FBF08953FB7F8940A
:102440008091A9029091AA02A091AB02B091AC0236
:1024500026B5A89B05C02F3F19F00196A11DB11DFF
:102460003FBF6627782F892F9A2F620F711D811D1C
:10247000911D42E0660F771F881F991F4A95D1F77B
:102480000895CF92DF92EF92FF92CF93DF936B018B
:102490007C010E941E12EB01C114D104E104F1047D
:1024A00079F00E941E126C1B7D0B683E7340A0F3F6
:1024B00081E0C81AD108E108F108C851DC4FECCF1F
:1024C000DF91CF91FF90EF90DF90CF9008957894B7
:1024D00084B5826084BD84B5816084BD85B5826029
:1024E00085BD85B5816085BDEEE6F0E080818160C7
:1024F0008083E1E8F0E010828081826080838081C7
:1025000081608083E0E8F0E0808181608083E1EB9E
:10251000F0E0808184608083E0EBF0E08081816086
:102520008083EAE7F0E0808184608083808182603C
:102530008083808181608083808180688083109225
:10254000C10008951F93CF93DF93182FEB0161E033
:102550000E942A13209711F460E004C0CF3FD105F8
:1025600039F461E0812FDF91CF911F910C946313B7
:10257000E12FF0E0EC56FE4FE491E330F9F048F43F
:10258000E130B9F0E230A1F584B5806284BDC8BD08
:1025900034C0E630E9F0E73019F1E43049F58091D4
:1025A0008000806280938000D0938B00C0938A006B
:1025B00024C084B5806884BDC7BD1FC080918000E1
:1025C000806880938000D0938900C093880015C0F4
:1025D0008091B00080688093B000C093B3000DC0BC
:1025E0008091B00080628093B000C093B40005C0B9
:1025F000C038D1050CF0B5CFAFCFDF91CF911F918F
:102600000895833081F028F4813099F08230A1F070
:1026100008958630A9F08730B9F08430D1F48091E4
:1026200080008F7D03C0809180008F778093800031
:10263000089584B58F7702C084B58F7D84BD0895D9
:102640008091B0008F7703C08091B0008F7D809320
:10265000B0000895CF93DF9390E0FC01E855FE4F62
:102660002491FC01E454FE4F8491882349F190E0C9
:10267000880F991FFC01EC51FE4FA591B491865231
:102680009E4FFC01C591D4919FB7611108C0F89489
:102690008C91209582238C93888182230AC062309A
:1026A00051F4F8948C91322F309583238C93888148
:1026B000822B888304C0F8948C91822B8C939FBFCB
:1026C000DF91CF9108950F931F93CF93DF931F92C4
:1026D000CDB7DEB7282F30E0F901EC56FE4F8491DC
:1026E000F901E855FE4F1491F901E454FE4F0491AD
:1026F0000023C9F0882321F069830E9401136981B6
:10270000E02FF0E0EE0FFF1FE652FE4FA591B491CF
:102710009FB7F8948C91611103C01095812301C07B
:10272000812B8C939FBF0F90DF91CF911F910F91C1
:102730000895CF93DF93282F30E0F901EC56FE4F38
:102740008491F901E855FE4FD491F901E454FE4F0C
:10275000C491CC2391F081110E940113EC2FF0E081
:10276000EE0FFF1FE053FE4FA591B4912C912D2346
:1027700081E090E021F480E002C080E090E0DF9111
:10278000CF910895FC0124853585F901E05CFF4F68
:1027900080819181329620813181821B930B8F73CE
:1027A00099270895FC0184859585FC01E05CFF4F25
:1027B000408151813296208131814217530741F087
:1027C0000190F081E02DE80FF91F808190E00895DD
:1027D0008FEF9FEF0895FC0184859585FC01E05CF7
:1027E000FF4F40815181329620813181421753073A
:1027F00079F0A081B181A80FB91F8C91208131811E
:102800002F5F3F4F2F7333273183208390E008954C
:102810008FEF9FEF0895FC0181A1882329F0A489FF
:10282000B5898C9186FFFBCF11A20895CF93DF93DA
:10283000FC0126853785D901A05CBF4F8D919C9105
:10284000119701968F739927E901CE5BDF4F48817D
:10285000598184179507D9F30D90BC91A02DA20F33
:10286000B31F6C93A685B785A05CBF4F11969C9350
:102870008E93A689B7892C9181E090E0078C02C0E5
:10288000880F991F0A94E2F7282B2C9381E081A3EB
:102890000488F589E02D80818064808381E090E068
:1028A000DF91CF91089508951F920F920FB60F9266
:1028B00011242F933F934F938F939F93EF93FF9305
:1028C0008091C00082FD1CC04091C60080915303DE
:1028D0009091540301968F7399272091550330915D
:1028E00056038217930771F0E0915303F09154035C
:1028F000ED5EFC4F4083909354038093530302C0DA
:102900008091C600FF91EF919F918F914F913F91E0
:102910002F910F900FBE0F901F9018958DEA92E0A7
:102920000E94C213892B11F00C94531408951F9226
:102930000F920FB60F9211242F933F938F939F9373
:10294000EF93FF9320910F033091100380911103B7
:10295000909112032817390731F48091C1008F7DBF
:102960008093C10014C0E0911103F0911203E15370
:10297000FD4F2081809111039091120301968F7376
:10298000992790931203809311032093C600FF911F
:10299000EF919F918F913F912F910F900FBE0F90CC
:1029A0001F901895CF92DF92EF92FF92CF93DF9313
:1029B000EC016A017B01411581EE58076105710543
:1029C000F9F0EC89FD8981E090E008A002C0880F51
:1029D000991F0A94E2F7808360E079E08DE390E04C
:1029E000A70196010E94B61A2150310941095109E7
:1029F0005695479537952795211580E1380798F02A
:102A0000EC89FD89108260E874E88EE190E0A7010E
:102A100096010E94B61A2150310941095109569573
:102A2000479537952795E889F9893083EA89FB89A5
:102A3000208319A2EE89FF89408181E090E09C010A
:102A40000C8C02C0220F331F0A94E2F7422B408302
:102A5000EE89FF8940819C010D8C02C0220F331F3B
:102A60000A94E2F7422B4083EE89FF8940819C0162
:102A70000E8C02C0220F331F0A94E2F7422B4083D0
:102A8000EE89FF8920810F8C02C0880F991F0A945C
:102A9000E2F7809582238083DF91CF91FF90EF90C2
:102AA000DF90CF9008951092B0021092AF0288EE9E
:102AB00093E0A0E0B0E08093B1029093B202A093C3
:102AC000B302B093B40280ED91E09093AE02809394
:102AD000AD0283E193E09093BA028093B9028FEC48
:102AE00092E09093BC028093BB0285EC90E09093BF
:102AF000BE028093BD0284EC90E09093C00280936C
:102B0000BF0280EC90E09093C2028093C10281ECFE
:102B100090E09093C4028093C30282EC90E0909383
:102B2000C6028093C50286EC90E09093C802809321
:102B3000C70284E08093C90283E08093CA0287E0E1
:102B40008093CB0285E08093CC0281E08093CD021C
:102B50000895AF92BF92CF92DF92EF92FF920F93C0
:102B60001F93CF93DF936C017B01C0E0D0E000E0C6
:102B700010E0F601EC0FFD1F4AE050E06281C70152
:102B80000E9411175C016EE2C7010E943E168A0D79
:102B90009B1D080F191F2196C330D10551F74AE03C
:102BA00050E0F6016581C7010E941117800F911F47
:102BB000DF91CF911F910F91FF90EF90DF90CF9019
:102BC000BF90AF9008950F93FC0180EE91E0918348
:102BD000808362834383248305830F91089580EE6D
:102BE00091E09093580380935703109259031092E9
:102BF0005A0310925B0310925C030895CF92DF9208
:102C0000EF92FF920F931F93CF93DF936C017A01A2
:102C1000EB01E60EF71E00E010E0CE15DF0561F0D7
:102C20006991D601ED91FC910190F081E02DC601F2
:102C30000995080F191FF1CFC801DF91CF911F919E
:102C40000F91FF90EF90DF90CF900895611571057F
:102C500081F0DB010D900020E9F7AD0141505109F1
:102C6000461B570BDC01ED91FC910280F381E02DB6
:102C7000099480E090E008950C942616DC01ED9113
:102C8000FC910190F081E02D09940F931F93CF9355
:102C9000DF93EC016DE00E943E168C016AE0CE01EC
:102CA0000E943E16800F911FDF91CF911F910F91CF
:102CB00008958F929F92AF92BF92CF92DF92EF9240
:102CC000FF920F931F93CF93DF93CDB7DEB7A197FA
:102CD0000FB6F894DEBF0FBECDBF7C01C42EE52F2A
:102CE000CB01D22E19A221E02D1510F02AE0D22E10
:102CF0008E010F5D1F4F8D2C912CA12CB12C6C2DB2
:102D00007E2FA50194010E94B61A8C2DD29E8019A7
:102D10001124015011098A3014F4805D01C0895CCE
:102D2000F8018083211531054105510521F0C22E9E
:102D3000E32FCA01E4CFB801C7010E942616A1966D
:102D40000FB6F894DEBF0FBECDBFDF91CF911F91BC
:102D50000F91FF90EF90DF90CF90BF90AF909F903A
:102D60008F900895CF92DF92EF92FF920F931F936F
:102D7000CF93DF93EC016A017B012115310579F4D2
:102D8000E881F9810190F081E02D642FDF91CF91EE
:102D90001F910F91FF90EF90DF90CF9009942A3010
:102DA0003105E9F477FF1AC06DE20E943E168C01EE
:102DB00044275527BA014C195D096E097F092AE09D
:102DC000CE010E945916800F911FDF91CF911F9164
:102DD0000F91FF90EF90DF90CF9008952AE0B70118
:102DE000A601CE01DF91CF911F910F91FF90EF903F
:102DF000DF90CF900C9459169A01AB01662757FDCE
:102E00006095762F0C94B2162115310541F4DC0142
:102E1000ED91FC910190F081E02D642F09940C94C8
:102E200059169A01462F50E060E070E00C940417A8
:102E30009A01AB0160E070E00C9404170E946712E5
:102E40000E943C04CEE8D4E10E945C032097E1F3A9
:102E50000E948E14F9CF5058BB27AA270ED070C1FC
:102E600061D130F066D120F031F49F3F11F41EF4AF
:102E700056C10EF4E095E7FB4CC1E92F72D180F307
:102E8000BA17620773078407950718F071F49EF567
:102E90008AC10EF4E0950B2EBA2FA02D0B01B901BB
:102EA00090010C01CA01A0011124FF27591B99F0C0
:102EB000593F50F4503E68F11A16F040A22F232FCC
:102EC000342F4427585FF3CF469537952795A7951C
:102ED000F0405395C9F77EF41F16BA0B620B730BC3
:102EE000840BBAF09150A1F0FF0FBB1F661F771F34
:102EF000881FC2F70EC0BA0F621F731F841F48F4E9
:102F0000879577956795B795F7959E3F08F0B3CF6E
:102F10009395880F08F09927EE0F97958795089558
:102F2000D4D008F481E008950CD00AC102D140F059
:102F3000F9D030F021F45F3F19F0EBC0511134C1EA
:102F4000EEC00FD198F39923C9F35523B1F3951B24
:102F5000550BBB27AA2762177307840738F09F5FBA
:102F60005F4F220F331F441FAA1FA9F333D00E2E29
:102F70003AF0E0E830D091505040E695001CCAF796
:102F800029D0FE2F27D0660F771F881FBB1F26175B
:102F900037074807AB07B0E809F0BB0B802DBF012E
:102FA000FF2793585F4F2AF09E3F510568F0B1C04C
:102FB000FBC05F3FECF3983EDCF386957795679511
:102FC000B795F7959F5FC9F7880F911D96958795DF
:102FD00097F90895E1E0660F771F881FBB1F6217FE
:102FE00073078407BA0720F0621B730B840BBA0BBC
:102FF000EE1F88F7E0950895BCD088F09F5790F0B9
:10300000B92F9927B751A0F0D1F0660F771F881F0D
:10301000991F1AF0BA95C9F712C0B13081F0C3D028
:10302000B1E00895C0C0672F782F8827B85F39F0C6
:10303000B93FCCF3869577956795B395D9F73EF46C
:1030400090958095709561957F4F8F4F9F4F089514
:10305000E89409C097FB3EF4909580957095619532
:103060007F4F8F4F9F4F9923A9F0F92F96E9BB27E8
:103070009395F695879577956795B795F111F8CF64
:10308000FAF4BB0F11F460FF1BC06F5F7F4F8F4FCF
:103090009F4F16C0882311F096E911C0772321F0C5
:1030A0009EE8872F762F05C0662371F096E8862F5D
:1030B00070E060E02AF09A95660F771F881FDAF7B4
:1030C000880F9695879597F90895990F0008550FE1
:1030D000AA0BE0E8FEEF16161706E807F907C0F09E
:1030E00012161306E407F50798F0621B730B840BA6
:1030F000950B39F40A2661F0232B242B252B21F480
:1031000008950A2609F4A140A6958FEF811D811D1F
:10311000089597F99F6780E870E060E008959FEF59
:1031200080EC089500240A9416161706180609065E
:10313000089500240A94121613061406050608952D
:10314000092E0394000C11F4882352F0BB0F40F4B5
:10315000BF2B11F460FF04C06F5F7F4F8F4F9F4FF5
:10316000089557FD9058440F551F59F05F3F71F077
:103170004795880F97FB991F61F09F3F79F08795DE
:103180000895121613061406551FF2CF4695F1DF67
:1031900008C0161617061806991FF1CF86957105F7
:1031A000610508940895E894BB2766277727CB012B
:1031B00097F908950BD0C4CFB5DF28F0BADF18F027
:1031C000952309F0A6CFABCF1124EECFCADFA0F331
:1031D000959FD1F3950F50E0551F629FF001729FAC
:1031E000BB27F00DB11D639FAA27F00DB11DAA1FCB
:1031F000649F6627B00DA11D661F829F2227B00D18
:10320000A11D621F739FB00DA11D621F839FA00DA2
:10321000611D221F749F3327A00D611D231F849FF2
:10322000600D211D822F762F6A2F11249F57504049
:103230008AF0E1F088234AF0EE0FFF1FBB1F661FE4
:10324000771F881F91505040A9F79E3F510570F09D
:1032500060CFAACF5F3FECF3983EDCF3869577957D
:103260006795B795F795E7959F5FC1F7FE2B880F98
:10327000911D9695879597F90895FA01EE0FFF1F16
:1032800030962105310599F16115710561F4803899
:10329000BFE39B0749F168949038810561F080385D
:1032A000BFEF9B0741F0992342F5FF3FE105310550
:1032B000210511F1E8940894E795D901AA2329F48E
:1032C000AB2FBE2FF85FD0F310C0FF5F70F4A69550
:1032D000E0F7F73950F019F0FF3A38F49F779F93F1
:1032E0000CD00F9007FC905808953EF018CF60E086
:1032F00070E080E89FE308954FE79F775F934F93D7
:103300003F932F939ED02F913F914F915F9152DF2A
:1033100005C019F40EF0FDCE46CF01CF2ADFC8F369
:103320009638C0F707F80F92E8942BE33AEA48EB97
:103330005FE74EDF0F920F920F924DB75EB70F927D
:10334000C0D0E6E7F0E016D04F915F91EF91FF918A
:10335000E595EE1FFF1F49F0FE57E0684427EE0F8A
:10336000441FFA95E1F74195550B32D00F9007FEB7
:1033700026C00895DF93CF931F930F93FF92EF9290
:10338000DF927B018C01689405C0DA2EEF011EDF0D
:10339000FE01E894A5912591359145915591AEF3A3
:1033A000EF016BDDFE019701A801DA9479F7DF9058
:1033B000EF90FF900F911F91CF91DF9108959B01A6
:1033C000AC0160E070E080E89FE3AECDA2CEACC07F
:1033D000D0DEE8F39923D9F3940F511DBBF391503C
:1033E000504094F059F0882332F0660F771F881F01
:1033F00091505040C1F79E3F510544F7880F911DF1
:103400009695879597F908955F3FACF0983E9CF0AC
:10341000BB27869577956795B79508F4B160939526
:10342000C1F7BB0F58F711F460FFE8CF6F5F7F4F14
:103430008F4F9F4FE3CFB8CE0EF076C070CE68941A
:1034400068CE97DEC8F39923D1F3C6F3DF93CF9309
:103450001F930F93FF92C92FDD2788232AF021970E
:10346000660F771F881FDAF720E030E040E85FEB57
:103470009FE3883920F0803E30F021968F77ECDC96
:10348000EEE9F0E003C0E8DCEBECF0E073DF8B0189
:10349000BE01EC01FB2E6F5771097595771F880BE4
:1034A000990BD8DD28E132E741E35FE38FDEAF2DF2
:1034B0009801AE01FF900F911F91CF91DF91DDDC5C
:1034C0003FCEFA01DC01AA0FBB1F9B01AC01BF5725
:1034D00028F422273327442750781FC0B75188F497
:1034E000AB2F0024469537952795011CA395D2F361
:1034F000002069F0220F331F441FB395DAF30DD07B
:10350000AACC61307105A0E88A07B94630F49B0166
:10351000AC016627772788279078309621F02083A2
:1035200031834283538308959F3F31F0915020F4BB
:10353000879577956795B795880F911D969587958F
:1035400097F9089597FB072E16F4009407D077FD9E
:1035500009D00E94DE1A07FC05D03EF490958195B3
:103560009F4F0895709561957F4F0895A1E21A2E9F
:10357000AA1BBB1BFD010DC0AA1FBB1FEE1FFF1F17
:10358000A217B307E407F50720F0A21BB30BE40B67
:10359000F50B661F771F881F991F1A9469F76095AE
:1035A0007095809590959B01AC01BD01CF01089568
:1035B000EE0FFF1F0590F491E02D0994AA1BBB1B91
:1035C00051E107C0AA1FBB1FA617B70710F0A61B23
:1035D000B70B881F991F5A95A9F780959095BC0144
:1035E000CD0108950F931F93CF93DF938C01FC01BE
:1035F00001900020E9F7CF01801B910B0E94A110E0
:10360000EC01009719F0B8010E941F1BCE01DF9159
:10361000CF911F910F910895FB01DC018D918134B1
:103620001CF08B350CF4805E619161341CF06B35BD
:103630000CF4605E861B611189F3990B0895FB0100
:10364000DC0101900D920020E1F70895FB01DC01FF
:103650004150504030F08D910190801919F40020B4
:10366000B9F7881B990B089511E0C6EFD1E004C0AB
:10367000FE010E94DA1A2296C83FD107C9F7F894D2
:02368000FFCF7A
:1036820080258025000061048000726573706F6E72
:103692007365006D736754797065006472696E6B4F
:1036A2004E616D65004E657874206472696E6B3A86
:1036B2002020202020004472696E6B2063616E63BB
:1036C200656C6C656420004E6F207175657565646C
:1036D200206472696E6B73004D616B696E67206462
:1036E20072696E6B3A2020202020006C6564006EA7
:1036F200756D00720067006200426F6F7A65426FFB
:10370200742062793A202020200045455820486FD5
:10371200757365002D002E0022006E756C6C0066BC
:10372200616C7365007472756500000000008004AE
:10373200FE15C204F2049804790475040000000026
:103742006D0EFE15AB0D700D910DC30D0000000046
:103752001614FE15C213EB13D2130B140000000053
:02376200A915A7
:00000001FF
