:100000000C94FC000C9424010C9424010C948B148B
:100010000C94AF140C94D3140C9424010C9424016C
:100020000C9424010C9424010C9424010C942401BC
:100030000C9424010C9426100C9424010C9424019B
:100040000C9474170C9424010C94001A0C94431A09
:100050000C9424010C9424010C9424010C9424018C
:100060000C9424010C942401D20ED50EE20EE60E5F
:10007000EA0EEE0EF20E07634236B79BD8A71A3986
:10008000685618AEBAAB558C1D3CB7CC5763BD6DE6
:10009000EDFD753EF6177231BF000000803F08008D
:1000A0000000BE922449123EABAAAA2ABECDCCCCF7
:1000B0004C3E00000080BEABAAAAAA3E0000000091
:1000C000BF000000803F0000000000084178D3BB63
:1000D0004387D1133D190E3CC3BD4282AD2B3E6810
:1000E000EC8276BED98FE1A93E4C80EFFFBE01C401
:1000F000FF7F3F000000000000C20100010011006E
:1001000011000C0000E100000A002500250021007C
:10011000009600001900390039003600127A0000FC
:100120001F004600460044008070000022004D0081
:100130004D004A00004B000036007500750072004B
:10014000403800004A009C009C0099008025000077
:100150007200EC00EC00E900C0120000E900DA01D6
:10016000DA01D70160090000D701B603B603B30373
:10017000B0040000B3036E076E076B07580200005F
:100180006E07DC0EDC0ED80E2C010000DC0EC11D4B
:10019000C11DBE1D0000000700020100000304068F
:1001A0000000000000000000010204081020408050
:1001B00001020408102001020408102004040404B1
:1001C0000404040402020202020203030303030301
:1001D0000000000023002600290000000000250088
:1001E00028002B0000000000240027002A00EF0157
:1001F000BA0FFF1A8E1C1A0211241FBECFEFD8E0CF
:10020000DEBFCDBF12E0A0E0B1E0EAE3F6E402C059
:1002100005900D92A431B107D9F725E0A4E1B2E031
:1002200001C01D92A434B207E1F711E0C6EFD1E09E
:1002300004C02297FE010E949722CE3ED107C9F743
:100240000E94F21D0C9410230C940000EF92FF9278
:100250000F931F93CF93DF938A0179010197EC01EC
:10026000CC0FDD1FC80FD91FAB016C2F86EF92E0BA
:100270000E945B106C2F6F5FA80186EF92E00E94D6
:100280005B106C2F6E5FA70186EF92E00E945B10FF
:1002900086EF92E0DF91CF911F910F91FF90EF9049
:1002A0000C949F10CF93DF93C1E0D0E020E030E0CA
:1002B00040E050E060E070E0CE010E94260121960F
:1002C000CD30D10599F7DF91CF910895EF92FF924C
:1002D0000F931F93CF93DF9300EF1FE0CFEFD0E09A
:1002E000BE0185E00E944E18BE0186E00E944E18B5
:1002F000EE24E394F12C9801A801B801C7010E94F3
:1003000026018FEFE81AF80A8DE0E816F10499F754
:100310006AE070E080E090E00E94ED1721970051C4
:100320001109CF3F8FEFD807D9F6DF91CF911F91F9
:100330000F91FF90EF900895EF92FF920F931F930C
:10034000CF93DF9300E010E0C0E0D0E0BE0185E095
:100350000E944E18BE0186E00E944E18EE24E394DF
:10036000F12C9801A801B801C7010E9426018FEF66
:10037000E81AF80A8DE0E816F10499F76AE070E0EF
:1003800080E090E00E94ED172196005F1F4FC1159D
:1003900081E0D807D9F6DF91CF911F910F91FF909F
:1003A000EF9008950F931F93CF93DF938C018FEEFF
:1003B00092E00E94B20FEC01B8018FEE92E00E9431
:1003C000A30F9C014AE051E0BE018FEE92E00E9433
:1003D000740FCE01DF91CF911F910F9108950F936C
:1003E00000E020E040E060E089EE92E00E94821CA4
:1003F00088E392E00E94251110923302109232029B
:100400008FED91E0909331028093300280E993E088
:1004100090933502809334028FEF9FEF90933702D1
:100420008093360220E042E06FE084E192E00F9199
:100430000C94451584E192E00C9446166EEF84E12D
:1004400092E00E94191468E584E192E00E94191478
:100450006EEF84E192E00E94191468E484E192E076
:100460000E94191462E370E080E090E00C94ED17B4
:100470000F931F93CF93DF931F92CDB7DEB7082F53
:10048000162F6EEF84E192E049830E94191460ED0B
:1004900084E192E00E941914602F84E192E00E94AE
:1004A0001914612F84E192E00E9419144981642F8C
:1004B00084E192E00E9419146AE070E080E090E02C
:1004C0000F90DF91CF911F910F910C94ED170F9327
:1004D0001F93CF93DF9340E06FEF80E00E943802DC
:1004E0000E941E0263E171E084E192E00E94101D0F
:1004F000C4E0D0E020E030E04FEF5FE060E070E08B
:100500008DE090E00E94260168EC70E080E090E0D1
:100510000E94ED1720E030E040E050E060E070E045
:100520008DE090E00E94260168EC70E080E090E0B1
:100530000E94ED1721972097E9F681E08093E6026B
:1005400061E08CE00E940F1960910201709103013B
:10055000882777FD8095982F0E94ED1720E030E0E6
:100560004FEF5FE060E070E081E090E00E942601E4
:1005700068E770E080E090E00E94ED1720E030E056
:100580004FEF5FE060E070E082E090E00E942601C3
:1005900068E770E080E090E00E94ED1720E030E036
:1005A0004FEF5FE060E070E083E090E00E942601A2
:1005B00068E770E080E090E00E94ED1720E030E016
:1005C0004FEF5FE060E070E084E090E00E94260181
:1005D00068E770E080E090E00E94ED1720E030E0F6
:1005E0004FEF5FE060E070E088E090E00E9426015D
:1005F00068E770E080E090E00E94ED1720E030E0D6
:100600004FEF5FE060E070E08CE090E00E94260138
:1006100068E770E080E090E00E94ED1720E030E0B5
:100620004FEF5FE060E070E08BE090E00E94260119
:1006300068E770E080E090E00E94ED1720E030E095
:100640004FEF5FE060E070E08AE090E00E942601FA
:1006500068E770E080E090E00E94ED1720E030E075
:100660004FEF5FE060E070E089E090E00E942601DB
:1006700068E770E080E090E00E94ED1720E030E055
:100680004FEF5FE060E070E085E090E00E942601BF
:1006900068E770E080E090E00E94ED1720E030E035
:1006A0004FEF5FE060E070E086E090E00E9426019E
:1006B00068E770E080E090E00E94ED1720E030E015
:1006C0004FEF5FE060E070E087E090E00E9426017D
:1006D00060EF70E080E090E00E94ED17CFEFDFE088
:1006E00001E010E020E030E0AE0160E070E0C80121
:1006F0000E9426010F5F1F4F0D30110599F761E031
:1007000070E080E090E00E94ED172597CB3F8FEFDF
:10071000D80731F7C0E0D0E0BE0185E00E944E1856
:1007200065E070E080E090E00E94ED172196C11531
:1007300081E0D80789F762E370E080E090E00E94F2
:10074000ED17C0E0D0E001E010E09E01AE01BE0177
:10075000C8010E9426010F5F1F4F0D301105A9F738
:1007600061E070E080E090E00E94ED172596C430D3
:1007700080E1D80741F762E370E080E090E00E94FA
:10078000ED17C0E0D0E0BE0186E00E944E1865E0A3
:1007900070E080E090E00E94ED172196C11581E0A5
:1007A000D80789F70E941E024FEF6FEF8FEF0E946C
:1007B000380264E271E084E192E00E94101D65E37A
:1007C00071E084E192E00E94101DA0910001B091BF
:1007D000010120E63AEE0E949B22AB01BC012EEF04
:1007E00033E088E392E00E94D3119093E802809373
:1007F000E702DF91CF911F910F910895CF92DF9281
:10080000EF92FF920F931F93CF93DF930E941E02EC
:1008100040E060E08FEF0E94380266E471E084E11E
:1008200092E00E94101DC4E0D0E020E030E040E003
:1008300050E06FEF7FE08DE090E00E94260168ECD1
:1008400070E080E090E00E94ED1720E030E040E0B2
:1008500050E060E070E08DE090E00E94260168ECDE
:1008600070E080E090E00E94ED1721972097E9F674
:1008700000EF1FE0CFEFD0E0BE0185E00E944E18F0
:10088000BE0186E00E944E18EE24E394F12C9801FC
:10089000A80160EF7FE0C7010E9426018FEFE81AF0
:1008A000F80A8DE0E816F10491F765E070E080E069
:1008B00090E00E94ED17219700511109CF3F8FEF73
:1008C000D807D1F600EF1FE1C0E0D0E0CF3FD1055F
:1008D00049F044F0CE01805891098F3F910509F00D
:1008E00060F516C0680180E1D81AEE24E394F12C7B
:1008F00020E030E040E050E0B601C7010E94260150
:100900008FEFE81AF80A85E0E816F10489F7E2CFDC
:10091000680188E0D81A65E0E62EF12C20E030E08E
:1009200040E050E0B601C7010E9426018FEFE81AAF
:10093000F80A89E0E816F10489F7CF3FD10599F06C
:1009400094F059E0E52EF12C20E030E040E050E05A
:10095000B801C7010E9426018FEFE81AF80A8DE05E
:10096000E816F10489F765E070E080E090E00E940D
:10097000ED17219600511109C11582E0D80709F041
:10098000A5CF1092E60260E08CE00E940F1940E0D3
:1009900060E080E00E943802DF91CF911F910F91BB
:1009A000FF90EF90DF90CF900C941E02AF92BF9219
:1009B000CF92DF92EF92FF920F931F93CF93DF932B
:1009C000CDB7DEB72E970FB6F894DEBF0FBECDBF02
:1009D0008C01009709F4C2C147E551E0BC018FEEDC
:1009E00092E00E943C0F009709F4B7C1FC01818599
:1009F0009285009709F032C16091E7027091E80298
:100A000088E392E00E9412134FE551E0B8018FEEA7
:100A100092E00E943C0FFC0161857285CE01089630
:100A20000E94C31B8091E602811102C00E946702EE
:100A30000E941E024FEF6FEF8FEF0E94380269E6AF
:100A400071E084E192E00E94101D2FE030E040E070
:100A500050E0BE01685F7F4FCE0101960E94031CEB
:100A6000BE016F5F7F4F84E192E00E94DB1CCE01EC
:100A700001960E94551B00E010E0C12CD12CAA2445
:100A8000A394B12C88E00E944519892BE1F0B110A4
:100A90000AC02FEF3FE04FEF5FE06FEF7FE08DE0A8
:100AA00090E00E942601F5E0CF0ED11C88EBC8161D
:100AB0008BE0D8060CF03FC000E010E0BB24B394FC
:100AC000E12CF12C49C0CD2871F02FEF3FE040E040
:100AD00050E060E070E08DE090E00E942601A2E02E
:100AE000EA2EF12C02C0E12CF12C0039E1E01E07C6
:100AF000E4F020E030E0AA2061F04FEF5FE060E03A
:100B000070E08DE090E00E94260100E010E0A12C52
:100B10000CC040E050E060E070E08DE090E00E94AA
:100B2000260100E010E0AA24A3940B5F1F4FC12C04
:100B3000D12CB12C11C020E030E040E050E06FEF4C
:100B40007FE08DE090E00E94260100E010E0BB24F1
:100B5000B394EE24E394F12C65E070E080E090E043
:100B60000E94ED17E114F10409F48CCFEA94EF2808
:100B700009F048C00E941E0240E060E08FEF0E9432
:100B800038026AE771E084E192E00E94101D64EC93
:100B900079E080E090E00E94ED1720E030E040E056
:100BA00050E060E070E08DE090E00E9426014FEFA1
:100BB0006FEF8FEF0E9438020E941E0264E271E024
:100BC00084E192E00E94101D62E370E080E090E01A
:100BD0000E94ED1765E371E084E192E00E94101D30
:100BE0006091E7027091E80288E392E00E94EC12C3
:100BF0006091E7027091E80288E392E00E94071397
:100C000001E026C00E9466010E941E024FEF60E0D4
:100C100080E00E9438026BE871E084E192E00E947B
:100C2000101D2FE030E040E050E0BE01685F7F4FD4
:100C3000CE0101960E94031CBE016F5F7F4F84E1CD
:100C400092E00E94DB1CCE0101960E94551B02E03F
:100C500010E0CE0108960E94551B84C0813091059A
:100C600009F044C00E9452014EE951E0B8018FEEF4
:100C700092E00E943C0F8C01009709F46EC042EA9A
:100C800051E0BC018FEE92E00E943C0F7C01FC0120
:100C900021853285215031092C30310508F060C0A2
:100CA00046EA51E0B8018FEE92E00E943C0F6C01E1
:100CB00048EA51E0B8018FEE92E00E943C0F5C01DF
:100CC0004AEA51E0B8018FEE92E00E943C0FFC012D
:100CD00021853285F50141855285F6016185728550
:100CE000F701818592850E9426013AC00397A9F5F4
:100CF0000E949C0120E030E040E050E060E070E0C5
:100D00008DE090E00E9426014FEF6FEF8FEF0E9481
:100D100038020E941E0264E271E084E192E00E94C7
:100D2000101D62E370E080E090E00E94ED1765E343
:100D300071E084E192E00E94101D6091E7027091E1
:100D4000E80288E392E00E94EC126091E702709161
:100D5000E80288E392E00E94071305C000E001C0AA
:100D600003E610E0C8012E960FB6F894DEBF0FBE62
:100D7000CDBFDF91CF911F910F91FF90EF90DF904A
:100D8000CF90BF90AF9008950F931F93CF93DF93B1
:100D900088E392E00E94171288E00E944519892B8F
:100DA000C9F18091E60220E030E0882391F040E034
:100DB00050E06FEF7FE08DE090E00E94260180918F
:100DC000E4029091E502843C9940A4F00E94FE0365
:100DD00011C04FEF5FE060E070E08DE090E00E94B6
:100DE00026018091E4029091E502843C994014F040
:100DF0000E9467028091E4029091E502019690932F
:100E0000E5028093E40261E070E080E090E00E94FF
:100E1000ED17C2CF88E00E944519892B71F420E0BC
:100E200030E040E050E060E070E08DE090E00E9453
:100E300026011092E5021092E40280E392E00E9403
:100E40007708882321F080E392E00E94220C80E35F
:100E500092E00E947708882371F160E372E08FEEE0
:100E600092E00E94F70D8C010E94D604EC01B801BB
:100E70008FEE92E00E94000980E392E00E94430C12
:100E8000C336D105C1F0CE010E94D201EC0140E38E
:100E900052E0BC018FEE92E00E94FB0E80E993E0ED
:100EA0000E94191DBE018FEE92E0DF91CF911F913C
:100EB0000F910C940009DF91CF911F910F9108952C
:100EC00040E855E260E070E084E192E00E94751530
:100ED0006EEF84E192E00E94191461ED84E192E0EA
:100EE0000E94191460E184E192E00E94191462E00A
:100EF00084E192E00E9419146AE070E080E090E0E2
:100F00000E94ED176EEF84E192E00E94191460E5F3
:100F100084E192E00E94191468EC84E192E00E945E
:100F200019146AE070E080E090E00E94ED176EEF27
:100F300084E192E00E94191469E984E192E00E9440
:100F400019146FEF84E192E00E9419146AE070E0D6
:100F500080E090E00E94ED176EEF84E192E00E9445
:100F600019146BE484E192E00E9419146EEF84E19D
:100F700092E00E94191464E584E192E00E94191441
:100F80006AE070E080E090E00E94ED1740E060E0F1
:100F90008FEF0E9438026CEA71E084E192E00E94D7
:100FA000101D6DEB71E084E192E00E94101D64EF72
:100FB00071E080E090E00E94ED1740E06FEF80E08C
:100FC0000E94380264EF71E080E090E00E94ED172B
:100FD0004FEF60E080E00E94380264EF71E080E053
:100FE00090E00E94ED1740E060E080E00E9438024F
:100FF00064E670E080E090E00E94ED170C941E0221
:1010000060E070E086EF92E00E94D11040E855E287
:1010100060E070E080E993E00E947E1A61E085E084
:101020000E94D61861E086E00E94D61860E088E051
:101030000E94D61861E08CE00E94D61861E08CE036
:101040000E940F190E9460070E941E0280E392E036
:101050000C94430CFC01848195810895772767FDEA
:101060007095FC01778366830895CF93DF931F9279
:10107000CDB7DEB7DC01ED91FC910484F585E02D60
:1010800069830995DC01ED91FC910190F081E02DDF
:1010900069810F90DF91CF910994CF92DF92EF9207
:1010A000FF920F931F93CF93DF937C016A01EB01B3
:1010B00000E010E00C151D0581F0D701ED91FC91C9
:1010C0000680F781E02DC70109958F3FBFEF9B0791
:1010D00021F089930F5F1F4FEDCFC801DF91CF91B2
:1010E0001F910F91FF90EF90DF90CF900895CF93D5
:1010F000DF93EC018E819F81019629F5E881F981CA
:101100000484F585E02DCE010995DC01ED91FC917B
:101110000480F581E02D0995892B99F0E881F9810A
:101120000680F781E02DCE0109958132910534F3D7
:10113000E881F9810284F385E02D682FCE010995BD
:1011400002C080E001C081E0DF91CF910895CF928D
:10115000DF92EF92FF92CF93DF93EC018E819F811C
:101160008F3F2FEF920759F02FEF3FEF3F832E83F2
:10117000DF91CF91FF90EF90DF90CF9008950E9484
:10118000BE176B017C0184EFC80E81E0D81EE11C04
:10119000F11CE881F9810484F585E02DCE010995E3
:1011A000DC01ED91FC910480F581E02D0995892BFE
:1011B00039F40E94BE176C157D058E059F0548F316
:1011C000E881F9810484F585E02DCE010995DC01E3
:1011D000ED91FC910680F781E02DDF91CF91FF909A
:1011E000EF90DF90CF9009948DE090E00E944D1633
:1011F000009729F02DE0FC0111922A95E9F7089556
:10120000EF92FF920F931F93CF93DF938C01EB012B
:10121000209709F1EA80FB80888587FD08C06E81F0
:101220007F816115710519F0C8010E940009888548
:10123000843031F489859A85009711F00E94E51673
:1012400088819981009711F00E94E516CE010E94D5
:10125000E516E701DDCFDF91CF911F910F91FF9050
:10126000EF9008952F923F924F925F926F927F92EC
:101270008F929F92AF92BF92CF92DF92EF92FF92A6
:101280000F931F93CF93DF9300D01F92CDB7DEB79C
:101290008C011B01DC01ED91FC910680F781E02DB2
:1012A00009959B838A83019619F48FEF9FEF42C1C2
:1012B000EA81FB81BD9781F4D801ED91FC91068014
:1012C000F781E02DC80109959B838A83019669F314
:1012D00088248A94982C03C088248394912C8A8132
:1012E0009B81C097C12CD12C0A97D0F49AE0F92E9B
:1012F000F601FE9E6001FF9ED00C11248A819B8125
:10130000C097C80ED91ED801ED91FC910680F781D7
:10131000E02DC80109959B838A83C0970A9740F303
:10132000EA81FB81EE32F10599F0CF018F7D8534A2
:10133000910571F0C89CC001C99C900DD89C900D7E
:101340001124D1011A969C938E93199782E0E5C0DF
:10135000B601882777FD8095982F0E94E71F6B01C3
:101360007C01EA81FB81BE97C9F5D801ED91FC9122
:101370000680F781E02DC80109959B838A83A12C03
:10138000B12C20E030E040E251E4C701B6010E94F8
:1013900097206B017C016A817B81605371098827EA
:1013A00077FD8095982F0E94E71F9B01AC01C70134
:1013B000B6010E94E91E6B017C01B1E0AB1AB108D5
:1013C000D801ED91FC910680F781E02DC8010995C7
:1013D0009B838A83C0970A97A0F202C0A12CB12CEC
:1013E0008A819B818F7D8534910509F048C0D801A1
:1013F000ED91FC910680F781E02DC80109959B8352
:101400008A838B9761F4D801ED91FC910680F78176
:10141000E02DC80109959B838A83B1E00FC0EA8162
:10142000FB81BD9769F4D801ED91FC910680F781AD
:10143000E02DC80109959B838A83BFEFB98302C061
:10144000E1E0E983612C712C8AE0582E8A819B812E
:10145000C0978A309105B8F49301529E3001539E93
:10146000700C1124680E791ED801ED91FC91068054
:10147000F781E02DC80109959B838A83E7CFB1E00E
:10148000B983612C712CB401882777FD8095982F42
:101490000E94E71FA70196010E9497206B017C0123
:1014A000B501882777FD8095982F0E94E71F4B0193
:1014B0005C01B301882777FD8095982F0E94E71F74
:1014C0002B013C01E9816E2F772767FD7095872FEF
:1014D000972F0E94E71F9B01AC01C301B2010E943C
:1014E00097209B01AC01C501B4010E94E91E9B013C
:1014F000AC0160E070E080E291E40E94FA209B0180
:10150000AC01C701B6010E949720D10119966D93D5
:101510007D938D939C931C9783E018968C93D801B0
:10152000ED91FC910284F385E02D6A81C801099553
:1015300080E090E00F900F900F90DF91CF911F917E
:101540000F91FF90EF90DF90CF90BF90AF909F9062
:101550008F907F906F905F904F903F902F90089565
:101560006115710539F0FB01618572854AE050E033
:101570000C94D01D80E090E008958F929F92AF92DE
:10158000BF92CF92DF92EF92FF920F931F93CF9370
:10159000DF93EC016115710509F469C0FB01C18499
:1015A000D284E384F48420E030E0A901C701B601CD
:1015B0000E944D1F87FF09C067EC71E0CE010E94B9
:1015C000101DF7FAF094F7F8F094C701B6010E94E5
:1015D000B91F4B015C012AE030E0AB01BC01CE0138
:1015E0000E94D81D65E571E0CE010E94101DC50165
:1015F000B4010E94E51F9B01AC01C701B6010E9426
:10160000E81E2CEA35EC47EA56E30E94E91E6B011E
:101610007C0105E010E020E030E040E251E4C70149
:10162000B6010E9497206B017C010E94B91F4B01FB
:101630005C014AE050E0CE010E94EC1DB40180E064
:1016400090E00E94E51F9B01AC01C701B6010E941A
:10165000E81E6B017C0120E030E0A9010E944D1FD3
:10166000882329F00150110901151105A1F680E028
:1016700090E0DF91CF911F910F91FF90EF90DF905D
:10168000CF90BF90AF909F908F900895EF92FF9270
:101690000F931F93CF93DF938C017B01DC01ED91BE
:1016A000FC910680F781E02D09958297B9F484E0DA
:1016B000F70180870E94C50FEC01009779F0D801EF
:1016C000ED91FC910680F781E02DC80109958F3FCF
:1016D000BFEF9B0731F4CE010E9421108FEF9FEFE7
:1016E00056C08232910509F44AC0803291050CF44B
:1016F00046C08C35910511F0BE013EC0D801ED9178
:10170000FC910680F781E02DC80109958F3FBFEF5E
:101710009B0709F38236910539F15CF48F3291050C
:1017200001F18C359105D1F0829749F6BE0182E234
:1017300023C08E369105D9F03CF48636910509F028
:10174000BECFBE018CE018C08237910599F0843776
:10175000910509F0B4CFBE0189E00EC0BE018CE551
:101760000BC0BE018FE208C0BE0188E005C0BE010B
:101770008AE002C0BE018DE00E94E20FA0CFCE0140
:101780000E94F60FF7019287818780E090E0DF9159
:10179000CF911F910F91FF90EF9008950F931F939A
:1017A000CF93DF93EC018B0169EC71E00E94101D77
:1017B00001151105B9F1F80161918F01662391F1CD
:1017C000603220F0623211F06C3541F56CE5CE01EB
:1017D0000E94121DF801319780818C30D1F044F4C1
:1017E0008930D9F08A30B9F0883029F762E616C01E
:1017F000823259F024F48D30F1F662E70FC08F3257
:1018000031F08C35C1F66CE509C062E207C06FE2C9
:1018100005C066E603C06EE601C064E7CE010E9423
:10182000121DC9CF62E2CE010E94121D80E090E03D
:10183000DF91CF911F910F910895FB016185728512
:101840000C94CE0BCF93DF93EC01E881F9810680F5
:10185000F781E02DCE0109958F3F2FEF920771F0B0
:10186000E881F9818132910594F30284F385E02DBA
:10187000682FCE01099580E090E002C08FEF9FEFC6
:10188000DF91CF910895CF93DF93EC01E881F98147
:101890000680F781E02DCE0109950196B9F78FEF0B
:1018A0009FEFDF91CF9108959F92AF92BF92CF9219
:1018B000DF92EF92FF920F931F93CF93DF93EC0190
:1018C0006B015A01E881F9810680F781E02D0995C5
:1018D0008B37910519F08FEF9FEF72C086E0F6010C
:1018E0008087CE010E94220CE881F9810680F78171
:1018F000E02DCE0109958D37910509F45FC0E8818F
:10190000F9810284F385E02D682FCE010995992491
:101910009A940E94F4088C010097E9F2992021F032
:10192000F6019783868306C0F70193838283FC01C7
:10193000F582E482CE010E94220CB801CE010E9401
:10194000460B019641F2CE010E94220CF8018185DE
:1019500092859183808312861186E881F9810680C1
:10196000F781E02DCE010995CA9709F0B4CFCE01D9
:101970000E94220CA501B801CE010E94EC0C019638
:1019800009F4A9CFCE010E94220CE881F9810680DA
:10199000F781E02DCE010995912C78018C329105CB
:1019A00009F4B7CF21E030E08D37910511F420E044
:1019B00030E088279927821B930B02C080E090E0DB
:1019C000DF91CF911F910F91FF90EF90DF90CF901B
:1019D000BF90AF909F900895AF92BF92CF92DF9249
:1019E000EF92FF920F931F93CF93DF9300D000D01D
:1019F0001F92CDB7DEB78C016B015A010E94220CF9
:101A0000019609F4B4C0D801ED91FC910680F781EC
:101A1000E02DC80109957C018F3FBFEF9B0709F4BA
:101A2000A6C0D801ED91FC910284F385E02D682FCA
:101A3000C8010995B2E2EB16F10429F4B601C80118
:101A40000E94460B96C0EDE2EE16F10421F0C701AC
:101A5000C0970A9728F4B601C8010E94320989C0CC
:101A6000FBE5EF16F10431F4A501B601C8010E94AF
:101A7000FB0D7FC02BE7E216F10431F4A501B6019E
:101A8000C8010E94540C75C08EE6E816F10411F5E9
:101A900019821A821B821C82D801ED91FC9100846C
:101AA000F185E02D44E050E0BE016F5F7F4FC8013B
:101AB0000995049709F05BC044E050E06BEC71E0DD
:101AC000CE0101960E940223009709F050C0F60152
:101AD00010864FC0F6E6EF16F10419F5CE01019617
:101AE0007C0185E0D7011D928A95E9F7D801ED9137
:101AF000FC910084F185E02D45E050E0B701C8017C
:101B000009950597A1F545E050E060ED71E0C7014A
:101B10000E940223009759F521E0F60120871186E3
:101B200028C0F4E7EF16F10411F519821A821B821E
:101B30001C82D801ED91FC910084F185E02D44E0F8
:101B400050E0BE016F5F7F4FC8010995049779F49B
:101B500044E050E066ED71E0CE0101960E94022360
:101B6000009729F421E0F6012087218702C08FEF3A
:101B70009FEF0F900F900F900F900F90DF91CF91EC
:101B80001F910F91FF90EF90DF90CF90BF90AF909B
:101B90000895CF92DF92EF92FF920F931F93CF930E
:101BA000DF937C018B016A016115710599F00E9438
:101BB000F408EC01009771F0C8010E94220CA60104
:101BC000BE01C8010E94EC0C019639F4BE01C701A8
:101BD0000E94000980E090E001C0CE01DF91CF912A
:101BE0001F910F91FF90EF90DF90CF90089540E00C
:101BF00050E00C94C90D9F92AF92BF92CF92DF92AA
:101C0000EF92FF920F931F93CF93DF93EC016B0141
:101C10005A01E881F9810680F781E02D09958B351D
:101C2000910519F08FEF9FEF53C085E0F601808793
:101C3000CE010E94220CE881F9810680F781E02D17
:101C4000CE0109958D35910509F440C0E881F981EF
:101C50000284F385E02D682FCE01099599249A948A
:101C60000E94F4088C010097E9F2992021F0F60116
:101C70009783868306C0F70193838283FC01F582F4
:101C8000E482CE010E94220CA501B801CE010E947F
:101C9000EC0C892B39F6CE010E94220CE881F981E7
:101CA0000680F781E02DCE010995912C78018C32C8
:101CB0009105B1F221E030E08D35910511F420E07D
:101CC00030E088279927821B930B02C080E090E0C8
:101CD000DF91CF911F910F91FF90EF90DF90CF9008
:101CE000BF90AF909F9008950F931F93CF93DF9372
:101CF000EC0161157105D1F1FB01068117816BE7DC
:101D0000CE010E94121D019619F48FEF9FEF30C093
:101D100001151105E1F0F80160817181CE010E9489
:101D2000CE0B019691F36AE3CE010E94121D01963B
:101D300061F3B801CE010E94BD0E019631F3F801A6
:101D4000028113810115110519F36CE2D9CF6DE7FA
:101D5000CE010E94121D21E030E0019611F020E03A
:101D600030E088279927821B930B02C080E090E027
:101D7000DF91CF911F910F9108950F931F936115DC
:101D80007105A1F1FB014085042F112707FD109576
:101D9000212F312F0730110548F5F801EC5CFF4F7A
:101DA0000C9495226BEC71E006C0FB012185222387
:101DB00031F066ED71E01F910F910C94101D60EDF4
:101DC00071E0F9CF1F910F910C94B00A1F910F9100
:101DD0000C94BD0A1F910F910C941D0C1F910F9133
:101DE0000C94FE0E1F910F910C94740E80E090E005
:101DF0001F910F910895CA010C94BD0E0F931F936C
:101E0000CF93DF938C016115710579F1FB01C681D8
:101E1000D7816BE50E94121D019671F48FEF9FEF41
:101E200026C0BE01C8010E94BD0E0196B9F30A800A
:101E3000DB81C02D209719F4209799F707C06CE239
:101E4000C8010E94121D0196B9F7E8CF6DE5C801DF
:101E50000E94121D21E030E0019611F020E030E0F8
:101E600088279927821B930B02C080E090E0DF91C6
:101E7000CF911F910F9108950F931F93CF93DF93ED
:101E80008A01FB01C681D781209759F0B80188816A
:101E900099810E94E822892B21F00A80DB81C02DE4
:101EA000F3CFCE01DF91CF911F910F910895DB0108
:101EB0001696ED91FC91179741155105A1F03097B9
:101EC00029F417965C934E93169708958281938117
:101ED000009711F0FC01FACF53834283DA01159683
:101EE000FC93EE9314970895CF92DF92EF92FF92B6
:101EF0000F931F93CF93DF938C017B016A01E9015C
:101F00002097C1F088819981009711F00E94E51611
:101F1000C6010E94C52299838883AE01B701C8011A
:101F2000DF91CF911F910F91FF90EF90DF90CF90B5
:101F30000C94570FDF91CF911F910F91FF90EF906D
:101F4000DF90CF900895CF93DF93EB010E94F408C8
:101F5000009729F022E0FC012087D287C187DF911A
:101F6000CF9108950E94F408009719F026E0FC0133
:101F7000208708950F9300E020E040E060E080EFCC
:101F800092E00E94821C0F91089586E090E00E94EA
:101F90004D160097B1F0E0E4F4E0DC01ED93FC9322
:101FA00020E031E0DF01A9011D9241505040E1F7EE
:101FB000DC0113963C932E93129715961C921E9259
:101FC00014970895FB0124813581428153812417A0
:101FD000350750F4A081B181A20FB31F8C93848187
:101FE000958101969583848380E008950F931F93D4
:101FF000CF93DF93EC018C819D81009741F0E881C4
:10200000F981E80FF91F31978081882321F0BE0103
:1020100080E00E94E20F8C819D810E944D168C0110
:10202000009749F060E474E00E94FB221982188254
:10203000CE010E94E516C801DF91CF911F910F914B
:102040000895009711F00C94E51608951F920F92D1
:102050000FB60F9211242F933F934F935F936F937B
:102060007F938F939F93AF93BF93EF93FF9380E200
:102070008093800010926F00109242038091400381
:1020800090914103892B31F07894E0914003F091D5
:1020900041030995FF91EF91BF91AF919F918F916E
:1020A0007F916F915F914F913F912F910F900FBE54
:1020B0000F901F9018958FE2861B93E0899FF00187
:1020C0001124F695E795E850FD4F80FF06C080810A
:1020D000807F852B808341830895CA0124E09695F3
:1020E00087952A95E1F7808381818F704295407FA3
:1020F000842B81830895CB0154E0969587955A955A
:10210000E1F7262F962F9295907F972BE8EFF2E03C
:10211000808391832283339633E0E034F307C0F366
:102120000895239A259A229A2D9881E08DBD80E505
:102130008CBD08958EBD0DB407FEFDCF0895CF93DD
:10214000DF9380914203811128C080E28093800058
:102150008091F702882329F01092F702C8EFD2E0AD
:1021600003C02D9A2D98FACF88810E949A108981F8
:102170000E949A108A810E949A10239683E0C034AC
:10218000D80790F381E08093420390EA9093800017
:10219000B09A80936F0080E001C081E0DF91CF9121
:1021A00008950F931F93CF93DF9300D0CDB7DEB781
:1021B0008C01219A229A539A2A9A69837A830E94DF
:1021C000911069817A81C8010E947B10C8010E9428
:1021D0009F10E0E8F0E080E2808310926F001092A0
:1021E0004203299A29988083E1E8F0E080E1808326
:1021F00081E090E0909389008093880082E090E0F5
:1022000090938B0080938A0080E090E29093870007
:102210008093860083E28093B000A1EBB0E088E079
:102220008C931092B40083E08093B3008C91816012
:102230008C93808181608083C8010F900F90DF9123
:10224000CF911F910F910C949F100F931F93CF93D9
:10225000DF93EC010E94BE17FE018E0120E030E00A
:10226000AE01420F531F44575F4FDA011C9211A673
:1022700010A6D8016D937D938D939D938D01AF0131
:1022800048585F4FDA011D921C922F5F3F4F3296E4
:102290002A30310529F7C655DF4F19821882DF91A0
:1022A000CF911F910F910895FC01E655FF4F2081BA
:1022B00031812A30310584F4FC0120E030E080A532
:1022C00091A5892B39F02F5F3F4F32962A30310587
:1022D000B1F702C0C90108958FEF9FEF08958F9263
:1022E0009F92AF92BF92CF92DF92EF92FF920F93A5
:1022F0001F93CF93DF9300D000D0CDB7DEB77C0122
:10230000590149835A836B837C830E9454114C0189
:1023100049815A816B817C8197FD32C0A114B1043F
:1023200079F16C01CC0CDD1CCC0CDD1CCE0CDF1C5F
:10233000F60144AF55AF66AF77AFF401EE0FFF1F64
:10234000EE0DFF1DB1A6A0A6EC59FF4F118300832F
:10235000F701E80DF91DE457FF4F81E080830E94EB
:10236000BE17F6016083718382839383F701E6557C
:10237000FF4F80819181019691838083C40102C0C7
:102380008FEF9FEF0F900F900F900F90DF91CF91F5
:102390001F910F91FF90EF90DF90CF90BF90AF9083
:1023A0009F908F9008950F931F9301E010E00E947B
:1023B0006F111F910F910895CF93DF936A307105CC
:1023C0009CF5EC01C655DF4F288139812115310577
:1023D00059F1FB01EE0FFF1FE80FF91F40A551A5B2
:1023E000452B11F111A610A6DC01A60FB71FA457AB
:1023F000BF4F1C92DF01AA56BF4F1D921C92DB01FA
:102400001F96AA0FBB1FAA0FBB1FA80FB91F1D92B3
:102410001D921D921C921397E858FF4F1182108253
:102420002150310939832883DF91CF9108952F926C
:102430003F924F925F926F927F928F929F92AF9254
:10244000BF92CF92DF92EF92FF920F931F93CF93A1
:10245000DF9300D000D000D0CDB7DEB79E838D8350
:102460000E94BE172D813E813C832B83F9011A8285
:10247000198222242394312C9F012A563F4FD901DF
:102480001D921C9240A551A5452B09F454C0AB8167
:10249000BC818D909D90AD90BC901397DC96CD90B3
:1024A000DD90ED90FC90DF972B013C014818590816
:1024B0006A087B084C145D046E047F04E0F1C80CCC
:1024C000D91CEA1CFB1CCD92DD92ED92FC92139775
:1024D00049815A81AD81BE814A0F5B1F44575F4FCE
:1024E000DA014C91442339F1AF014C595F4FDA01C5
:1024F0004D915C914115510521F4D9012D923C92E9
:102500001AC07F01B8E7EB0EF11CD7010D911C91A9
:102510000417150784F4D9012D923C920F5F1F4FC9
:10252000D7010D931C93041715072CF042E050E0DF
:10253000D9014D935C93A981BA811196BA83A9837D
:1025400032962B813C812C5F3F4F3C832B831A9723
:1025500009F092CF0D811E81E12CF12CF801EA5691
:10256000FF4F808191818130910571F0029791F444
:10257000D8019896ED91FC9199970995B7018D81B5
:102580009E810E94DC1106C0D8019896ED91FC91C5
:1025900099970995BFEFEB1AFB0A0E5F1F4F2AE0D0
:1025A000E216F104D9F626960FB6F894DEBF0FBEF8
:1025B000CDBFDF91CF911F910F91FF90EF90DF90F2
:1025C000CF90BF90AF909F908F907F906F905F90D3
:1025D0004F903F902F9008950F931F93CF93DF93C9
:1025E0008C01EB016A3071056CF40E94BE17FE018C
:1025F000EE0FFF1FEE0FFF1FE00FF11F60837183CF
:1026000082839383DF91CF911F910F9108956A3058
:1026100071053CF4680F791FFB01E457FF4F81E01F
:10262000808308956A30710534F4680F791FFB01C7
:10263000E457FF4F1082089520918503309186035F
:1026400028173907B9F490914303809144039817F0
:1026500089F0E0914303F0E0EB5BFC4F8081209137
:10266000430330E02F5F3F4F2F7333272093430303
:1026700090E008958FEF9FEF0895209185033091AA
:1026800086032817390781F490914303809144030E
:10269000981751F0E0914303F0E0EB5BFC4F808131
:1026A000992787FD909508958FEF9FEF08952091CA
:1026B0008503309186032817390771F4809144030C
:1026C0002091430390E0805C9F4F821B910960E45E
:1026D00070E00E945F22089580E090E008952091CC
:1026E0008503309186032817390739F48FB7F8949A
:1026F00010924403109243038FBF0895DC0151965A
:10270000ED91FC915297208150968C918095822377
:102710008083089520E001972FEF8F3F9207D9F72C
:10272000089520918503309186032817390789F091
:10273000FC01238D2E7F238F2FB7F8941092440332
:102740001092430390938603809385032FBF81E00B
:10275000089580E00895EF92FF920F931F93CF9317
:10276000DF93EC018B8DEE85FF859D8581FF04C095
:102770008081892329F447C08081892309F043C0DF
:102780008B899C890E948A1308E010E0EE24E39470
:10279000F12C8D899E890E948A13EE85FF858081A8
:1027A0009D85892311F0FE2803C08E2D8095F82287
:1027B000EE0C015011090115110559F78F89988DFB
:1027C0000E948A138B8D81FDF094809144032091A7
:1027D000430390E001968F73992730E082179307A7
:1027E00079F0E0914403F0E0EB5BFC4FF0828091E4
:1027F000440390E001968F7399278093440303C0AC
:102800008B8D81608B8FDF91CF911F910F91FF9006
:10281000EF900895611102C00C947E13DC01519673
:10282000ED91FC915297208150968C91282B20831A
:102830000895DF92EF92FF920F931F93CF93DF9350
:10284000EC01E62E898D9A8D892B39F481E090E098
:102850009B838A8380E090E04DC0DFB6F8946B8D57
:1028600066956170CE010E940A14898D9A8D059635
:102870000E948A138B8D08E010E0FF24F39481FFFF
:1028800019C08F2D8E2121F0CE010E947E1304C02D
:1028900061E0CE010E940A14898D9A8D0E948A13EC
:1028A000FF0C015011090115110559F7CE010E94C5
:1028B0007E1319C08F2D8E2129F061E0CE010E9478
:1028C0000A1403C0CE010E947E13898D9A8D0E9446
:1028D0008A13FF0C015011090115110559F761E028
:1028E000CE010E940A14DFBE898D9A8D0E948A1340
:1028F00081E090E0DF91CF911F910F91FF90EF90D9
:10290000DF9008958091850390918603009711F0E0
:102910000C94AB1308951F920F920FB60F921124CF
:102920002F933F934F935F936F937F938F939F93D7
:10293000AF93BF93EF93FF930E948214FF91EF91A7
:10294000BF91AF919F918F917F916F915F914F91C7
:102950003F912F910F900FBE0F901F9018951F92CF
:102960000F920FB60F9211242F933F934F935F93C3
:102970006F937F938F939F93AF93BF93EF93FF9347
:102980000E948214FF91EF91BF91AF919F918F911F
:102990007F916F915F914F913F912F910F900FBE5B
:1029A0000F901F9018951F920F920FB60F9211243F
:1029B0002F933F934F935F936F937F938F939F9347
:1029C000AF93BF93EF93FF930E948214FF91EF9117
:1029D000BF91AF919F918F917F916F915F914F9137
:1029E0003F912F910F900FBE0F901F9018951F933E
:1029F000CF93DF93EC01162F61E0812F0E94D61850
:102A000061E0812F0E940F19812F90E0FC01E855B1
:102A1000FE4FE491E88BFC01E454FE4FE491F0E0BA
:102A2000EE0FFF1FE652FE4F859194919A8B898B92
:102A3000DF91CF911F9108951F93CF93DF93EC0106
:102A4000162F60E0812F0E94D6188B8D81FD04C067
:102A500061E0812F0E940F191C87812F90E0FC01FB
:102A6000E855FE4FE491ED87FC01E454FE4FE491FC
:102A7000F0E0EE0FFF1FE053FE4F859194919F878A
:102A80008E87DF91CF911F910895FF920F931F932F
:102A9000CF93DF93EC01F62E522F1B821A8208EEA1
:102AA00013E020E030E00C831D832E833F8381EF11
:102AB00091E0998388831C8A1B8A1E8A1D8A188E3E
:102AC0001F8A1A8E198E8B8D8E7F50FB81F98B8F0A
:102AD000642FCE010E94F7146F2DCE01DF91CF91AC
:102AE0001F910F91FF900C941C150F931F93CF9380
:102AF000DF93EC011A8E198E188E1F8A1E8A1D8A8A
:102B0000A8EFB0E080E090E0FD01059115912591DE
:102B10003491041715072607370709F031C02CE058
:102B2000289FF001299FF00D1124E450FF4F2591BB
:102B300034913C8B2B8B2CE0289FF001299FF00DCA
:102B40001124E250FF4F259134913E8B2D8B2CE0C8
:102B5000289FF001299FF00D1124E050FF4F25918F
:102B60003491388F2F8B2CE0289FF001299FF00D96
:102B70001124EE5FFE4F859194919A8F898F08C042
:102B800001961C968D30910509F0BECF1C8A1B8AD8
:102B90008F89988D892B09F443C08C858631E0F5A7
:102BA00020916800883050F091E08E3008F490E079
:102BB00081E001C0880F9A95EAF701C084E0822B7A
:102BC000809368002C85283038F02E3040F0263174
:102BD00048F0E0E0F0E008C0EDE6F0E005C0EBE62C
:102BE000F0E002C0ECE6F0E03081283030F481E023
:102BF00001C0880F2A95EAF70DC0822F90E02E3091
:102C000010F4089701C00E9791E001C0990F8A95C2
:102C1000EAF7892F832B8083898D9A8D0E948A13EE
:102C2000CE01DF91CF911F910F910C949113FC0174
:102C30004485463150F5483028F04E3030F4EBE60C
:102C4000F0E005C0EDE6F0E002C0ECE6F0E0508117
:102C5000483040F481E090E0042E01C0880F0A94CF
:102C6000EAF710C0242F30E04E3018F42850310914
:102C700002C02E50310981E090E0022E01C0880F81
:102C80000A94EAF7809585238083089521EF31E047
:102C9000FC01318320830C941716CF93DF9382308D
:102CA000910510F482E090E0E0914205F091430537
:102CB00020E030E0A0E0B0E0309739F14081518170
:102CC00048175907B8F04817590771F48281938162
:102CD000109729F013969C938E9312972CC0909383
:102CE00043058093420527C02115310531F0421775
:102CF000530718F0A901DB0101C0EF019A01BD01E2
:102D0000DF010280F381E02DD7CF21153105F9F0E5
:102D1000281B390B2430310580F48A819B81611591
:102D2000710521F0FB019383828304C090934305D6
:102D300080934205FE01329644C0FE01E20FF31F6C
:102D40008193919322503109398328833AC020918D
:102D5000400530914105232B41F42091060130912B
:102D600007013093410520934005209104013091E3
:102D700005012115310541F42DB73EB740910801F9
:102D800050910901241B350BE0914005F09141055C
:102D9000E217F307A0F42E1B3F0B2817390778F032
:102DA000AC014E5F5F4F2417350748F04E0F5F1F91
:102DB00050934105409340058193919302C0E0E018
:102DC000F0E0CF01DF91CF910895CF93DF9300978B
:102DD00009F487C0FC01329713821282C091420528
:102DE000D0914305209781F420813181280F391F2C
:102DF00080914005909141058217930779F5F093F2
:102E00004105E09340056DC0DE0120E030E0AE17E3
:102E1000BF0750F412964D915C9113979D01411597
:102E2000510509F1DA01F3CFB383A28340815181C7
:102E3000840F951F8A179B0771F48D919C911197B0
:102E4000840F951F02969183808312968D919C9199
:102E50001397938382832115310529F4F093430559
:102E6000E09342053EC0D9011396FC93EE9312976E
:102E70004D915D91A40FB51FEA17FB0779F480818E
:102E80009181840F951F0296D90111969C938E9380
:102E90008281938113969C938E931297E0E0F0E0E9
:102EA0008A819B81009719F0FE01EC01F9CFCE01D8
:102EB000029628813981820F931F2091400530911D
:102EC00041052817390769F4309729F41092430512
:102ED0001092420502C013821282D0934105C09322
:102EE0004005DF91CF9108951F920F920FB60F9278
:102EF00011242F933F938F939F93AF93BF93809110
:102F0000880390918903A0918A03B0918B0330913B
:102F1000870323E0230F2D3720F40196A11DB11D57
:102F200005C026E8230F0296A11DB11D209387033B
:102F30008093880390938903A0938A03B0938B03B3
:102F400080918C0390918D03A0918E03B0918F039B
:102F50000196A11DB11D80938C0390938D03A093C6
:102F60008E03B0938F03BF91AF919F918F913F914B
:102F70002F910F900FBE0F901F9018952FB7F894B8
:102F8000609188037091890380918A0390918B03EB
:102F90002FBF08953FB7F89480918C0390918D03D3
:102FA000A0918E03B0918F0326B5A89B05C02F3F3B
:102FB00019F00196A11DB11D3FBF6627782F892FFB
:102FC0009A2F620F711D811D911D42E0660F771FC0
:102FD000881F991F4A95D1F70895CF92DF92EF92FB
:102FE000FF92CF93DF936B017C010E94CA17EB0124
:102FF000C114D104E104F10479F00E94CA176C1BDA
:103000007D0B683E7340A0F381E0C81AD108E10847
:10301000F108C851DC4FECCFDF91CF91FF90EF90DA
:10302000DF90CF900895789484B5826084BD84B594
:10303000816084BD85B5826085BD85B5816085BDB3
:10304000EEE6F0E0808181608083E1E8F0E01082CC
:10305000808182608083808181608083E0E8F0E00D
:10306000808181608083E1EBF0E0808184608083F7
:10307000E0EBF0E0808181608083EAE7F0E080812E
:10308000846080838081826080838081816080838E
:103090008081806880831092C10008951F93CF9330
:1030A000DF93182FEB0161E00E94D618209711F4EE
:1030B00060E004C0CF3FD10539F461E0812FDF919A
:1030C000CF911F910C940F19E12FF0E0EC56FE4FB9
:1030D000E491E330F9F048F4E130B9F0E230A1F5E1
:1030E00084B5806284BDC8BD34C0E630E9F0E73005
:1030F00019F1E43049F5809180008062809380006E
:10310000D0938B00C0938A0024C084B5806884BDAE
:10311000C7BD1FC080918000806880938000D093DD
:103120008900C093880015C08091B00080688093AA
:10313000B000C093B3000DC08091B0008062809356
:10314000B000C093B40005C0C038D1050CF0B5CFB5
:10315000AFCFDF91CF911F910895833081F028F494
:10316000813099F08230A1F008958630A9F087303F
:10317000B9F08430D1F4809180008F7D03C08091BC
:1031800080008F7780938000089584B58F7702C088
:1031900084B58F7D84BD08958091B0008F7703C082
:1031A0008091B0008F7D8093B0000895CF93DF931E
:1031B00090E0FC01E855FE4F2491FC01E454FE4FE1
:1031C0008491882349F190E0880F991FFC01EC510C
:1031D000FE4FA591B49186529E4FFC01C591D491AA
:1031E0009FB7611108C0F8948C91209582238C932D
:1031F000888182230AC0623051F4F8948C91322F76
:10320000309583238C938881822B888304C0F89423
:103210008C91822B8C939FBFDF91CF9108950F9358
:103220001F93CF93DF931F92CDB7DEB7282F30E0E7
:10323000F901EC56FE4F8491F901E855FE4F1491C7
:10324000F901E454FE4F04910023C9F0882321F0D2
:1032500069830E94AD186981E02FF0E0EE0FFF1F37
:10326000E652FE4FA591B4919FB7F8948C916111ED
:1032700003C01095812301C0812B8C939FBF0F90B9
:10328000DF91CF911F910F910895CF93DF93282F56
:1032900030E0F901EC56FE4F8491F901E855FE4FFC
:1032A000D491F901E454FE4FC491CC2391F08111E3
:1032B0000E94AD18EC2FF0E0EE0FFF1FE053FE4F21
:1032C000A591B4912C912D2381E090E021F480E030
:1032D00002C080E090E0DF91CF910895FC01248549
:1032E0003585F901E05CFF4F808191813296208124
:1032F0003181821B930B8F7399270895FC0184857C
:103300009585FC01E05CFF4F408151813296208120
:1033100031814217530741F00190F081E02DE80F11
:10332000F91F808190E008958FEF9FEF0895FC01D1
:1033300084859585FC01E05CFF4F40815181329688
:10334000208131814217530779F0A081B181A80F04
:10335000B91F8C91208131812F5F3F4F2F7333270D
:103360003183208390E008958FEF9FEF0895FC0153
:1033700081A1882329F0A489B5898C9186FFFBCF90
:1033800011A20895CF93DF93FC0126853785D901DB
:10339000A05CBF4F8D919C91119701968F739927D7
:1033A000E901CE5BDF4F4881598184179507D9F336
:1033B0000D90BC91A02DA20FB31F6C93A685B7856D
:1033C000A05CBF4F11969C938E93A689B7892C91D0
:1033D00081E090E0078C02C0880F991F0A94E2F701
:1033E000282B2C9381E081A30488F589E02D80812E
:1033F0008064808381E090E0DF91CF91089508950B
:103400001F920F920FB60F9211242F933F934F9359
:103410008F939F93EF93FF938091C00082FD1CC018
:103420004091C600809136049091370401968F73C5
:10343000992720913804309139048217930771F04D
:10344000E0913604F0913704EA50FC4F40839093AA
:1034500037048093360402C08091C600FF91EF913B
:103460009F918F914F913F912F910F900FBE0F9091
:103470001F90189580E993E00E946E19892B11F036
:103480000C94FF1908951F920F920FB60F921124FA
:103490002F933F938F939F93EF93FF932091F2038A
:1034A0003091F3038091F4039091F50328173907C5
:1034B00031F48091C1008F7D8093C10014C0E091F0
:1034C000F403F091F503EE54FC4F20818091F40356
:1034D0009091F50301968F7399279093F50380934C
:1034E000F4032093C600FF91EF919F918F913F913C
:1034F0002F910F900FBE0F901F901895CF92DF92D3
:10350000EF92FF92CF93DF93EC016A017B014115AB
:1035100081EE580761057105F9F0EC89FD8981E0BC
:1035200090E008A002C0880F991F0A94E2F78083F8
:1035300060E079E08DE390E0A70196010E9473229C
:1035400021503109410951095695479537952795DD
:10355000211580E1380798F0EC89FD89108260E838
:1035600074E88EE190E0A70196010E947322215039
:103570003109410951095695479537952795E889AD
:10358000F9893083EA89FB89208319A2EE89FF89B2
:10359000408181E090E09C010C8C02C0220F331F1F
:1035A0000A94E2F7422B4083EE89FF8940819C0117
:1035B0000D8C02C0220F331F0A94E2F7422B408386
:1035C000EE89FF8940819C010E8C02C0220F331FBF
:1035D0000A94E2F7422B4083EE89FF8920810F8C09
:1035E00002C0880F991F0A94E2F780958223808396
:1035F000DF91CF91FF90EF90DF90CF9008951092E0
:1036000093031092920388EE93E0A0E0B0E08093E1
:10361000940390939503A0939603B093970381E04E
:1036200092E0909391038093900386EF93E09093C0
:103630009D0380939C0382EB93E090939F03809380
:103640009E0385EC90E09093A1038093A00384EC0B
:1036500090E09093A3038093A20380EC90E090937A
:10366000A5038093A40381EC90E09093A70380933B
:10367000A60382EC90E09093A9038093A80386ECC4
:1036800090E09093AB038093AA0384E08093AC0313
:1036900083E08093AD0387E08093AE0385E0809361
:1036A000AF0381E08093B0030895FC018081918194
:1036B0000C94E516CF93DF93EC01888199810097F4
:1036C00011F00E94E516198218821D821C821B824D
:1036D0001A82DF91CF9108950F931F93CF93DF93B9
:1036E000EC018B016F5F7F4F888199810E94FF1DE4
:1036F000009731F0998388831B830A8381E001C09E
:1037000080E0DF91CF911F910F910895CF93DF93C8
:10371000EC0188819981892B29F08A819B81861708
:10372000970760F4CE010E946C1B882341F08C81C6
:103730009D81892B19F4E881F981108281E0DF9164
:10374000CF910895EF92FF920F931F93CF93DF9342
:10375000EC017B018A01BA010E94861B811104C021
:10376000CE010E945A1B07C01D830C83B7018881BC
:1037700099810E94FB22CE01DF91CF911F910F9181
:10378000FF90EF900895FC01118210821382128243
:103790001582148216826115710559F0FB010190A2
:1037A0000020E9F7AF0141505109461B570B0C941B
:1037B000A21B0895CF93DF93EC016115710561F0B1
:1037C000FB0101900020E9F7AF0141505109461B70
:1037D000570B0E94A21B02C00E945A1BCE01DF9110
:1037E000CF910895FC01248135816217730748F455
:1037F00080819181009729F0FC01E60FF71F8081FD
:10380000089580E00895BF92CF92DF92EF92FF92E9
:103810000F931F93CF93DF936C017B01EA01890122
:103820002417350720F48D2FE901042F182F6DE997
:1038300071E0C6010E94C31BD70114968D919C9123
:1038400015978C179D07C8F08017910708F48C0115
:10385000D701ED91FC911197E00FF11FB08010821C
:103860006D917C916C0F7D1FC6010E94DA1BD70100
:10387000ED91FC91E00FF11FB082C601DF91CF9175
:103880001F910F91FF90EF90DF90CF90BF90089520
:10389000AF92BF92CF92DF92EF92FF920F931F935E
:1038A000CF93DF936C017B01C0E0D0E000E010E03B
:1038B000F601EC0FFD1F4AE050E06281C7010E9453
:1038C000E51D5C016EE2C7010E94121D8A0D9B1D61
:1038D000080F191F2196C330D10551F74AE050E077
:1038E000F6016581C7010E94E51D800F911FDF91E0
:1038F000CF911F910F91FF90EF90DF90CF90BF90ED
:10390000AF9008950F93FC0181E192E09183808351
:1039100062834383248305830F91089581E192E0BC
:1039200090933B0480933A0410923C0410923D041F
:1039300010923E0410923F040895CF92DF92EF92CE
:10394000FF920F931F93CF93DF936C017A01EB01EA
:10395000E60EF71E00E010E0CE15DF0561F069917C
:10396000D601ED91FC910190F081E02DC601099501
:10397000080F191FF1CFC801DF91CF911F910F914F
:10398000FF90EF90DF90CF9008956115710581F061
:10399000DB010D900020E9F7AD0141505109461BB4
:1039A000570BDC01ED91FC910280F381E02D09942D
:1039B00080E090E00895AF92BF92CF92DF92EF92B5
:1039C000FF920F931F93CF93DF937C016B01C0E0B5
:1039D000D0E000E010E0D60114968D919C911597EF
:1039E000C817D90788F4D701ED91FC91A080B18068
:1039F000BE01C6010E94F21B682FC701F50109959F
:103A0000080F191F2196E7CFC801DF91CF911F91B1
:103A10000F91FF90EF90DF90CF90BF90AF900895FF
:103A20000C94C51CDC01ED91FC910190F081E02D1E
:103A300009940F931F93CF93DF93EC016DE00E94E5
:103A4000121D8C016AE0CE010E94121D800F911F91
:103A5000DF91CF911F910F9108958F929F92AF9216
:103A6000BF92CF92DF92EF92FF920F931F93CF936B
:103A7000DF93CDB7DEB7A1970FB6F894DEBF0FBEC8
:103A8000CDBF7C01C42EE52FCB01D22E19A221E09F
:103A90002D1510F02AE0D22E8E010F5D1F4F8D2CB8
:103AA000912CA12CB12C6C2D7E2FA50194010E948C
:103AB00073228C2DD29E80191124015011098A3055
:103AC00014F4805D01C0895CF80180832115310503
:103AD0004105510521F0C22EE32FCA01E4CFB80100
:103AE000C7010E94C51CA1960FB6F894DEBF0FBE99
:103AF000CDBFDF91CF911F910F91FF90EF90DF909D
:103B0000CF90BF90AF909F908F900895CF92DF920B
:103B1000EF92FF920F931F93CF93DF93EC016A0113
:103B20007B012115310579F4E881F9810190F0815B
:103B3000E02D642FDF91CF911F910F91FF90EF90B7
:103B4000DF90CF9009942A303105E9F477FF1AC04D
:103B50006DE20E94121D8C0144275527BA014C19B1
:103B60005D096E097F092AE0CE010E942D1D800F9C
:103B7000911FDF91CF911F910F91FF90EF90DF90F8
:103B8000CF9008952AE0B701A601CE01DF91CF9131
:103B90001F910F91FF90EF90DF90CF900C942D1D0F
:103BA0009A01AB01662757FD6095762F0C94861D10
:103BB0002115310541F4DC01ED91FC910190F0817A
:103BC000E02D642F09940C942D1D9A01462F50E08E
:103BD00060E070E00C94D81D9A01AB0160E070E0E9
:103BE0000C94D81D0E9413180E940008CAE3DAE161
:103BF0000E94C4062097E1F30E943A1AF9CF6F920F
:103C00007F928F929F92AF92BF92CF92DF92EF926C
:103C1000FF920F931F93CF93DF93EC01CB0120977B
:103C200081F4DF91CF911F910F91FF90EF90DF9082
:103C3000CF90BF90AF909F908F907F906F900C949B
:103C40004D16FE01E60FF71F9E0122503109E217C3
:103C5000F30708F4ACC0D9010D911C911197061718
:103C60001707B8F00530110508F49FC0A8014450AB
:103C700051094617570708F498C002501109061B4E
:103C8000170B019311936D937C93CF010E94E5165E
:103C90008CC05B01A01AB10A4E01800E911EA0914A
:103CA0004205B0914305612C712C60E070E01097E3
:103CB00009F449C0A815B905C9F5ED90FC90119714
:103CC000670142E0C40ED11CCA14DB0478F147013D
:103CD0008A189B08640142E0C40ED11C1296BC9065
:103CE00012971396AC91B5E0CB16D10440F0B28296
:103CF000A38391828082D9018D939C9309C00E5F2A
:103D00001F4F0E0D1F1DF90111830083EB2DFA2F9C
:103D10006115710531F0DB011396FC93EE93129758
:103D200044C0F0934305E09342053FC06D917C9100
:103D300011976616770608F43B01BD0112960D90A7
:103D4000BC91A02DB4CF60914005709141056815DC
:103D50007905E9F468167906D0F440910401509190
:103D600005014115510541F44DB75EB76091080159
:103D700070910901461B570BE417F507C0F4F09347
:103D80004105E0934005F901918380830EC00E94B4
:103D90004D167C01009759F0A801BE010E94DF2258
:103DA000CE010E94E516C70104C0CE0102C080E02A
:103DB00090E0DF91CF911F910F91FF90EF90DF90F6
:103DC000CF90BF90AF909F908F907F906F9008950D
:103DD0005058BB27AA270ED070C161D130F066D1F0
:103DE00020F031F49F3F11F41EF456C10EF4E0951B
:103DF000E7FB4CC1E92F72D180F3BA176207730752
:103E00008407950718F071F49EF58AC10EF4E095C9
:103E10000B2EBA2FA02D0B01B90190010C01CA0184
:103E2000A0011124FF27591B99F0593F50F4503E2F
:103E300068F11A16F040A22F232F342F4427585F21
:103E4000F3CF469537952795A795F0405395C9F739
:103E50007EF41F16BA0B620B730B840BBAF09150F1
:103E6000A1F0FF0FBB1F661F771F881FC2F70EC090
:103E7000BA0F621F731F841F48F487957795679563
:103E8000B795F7959E3F08F0B3CF9395880F08F04C
:103E90009927EE0F979587950895D4D008F481E07F
:103EA00008950CD00AC102D140F0F9D030F021F4CD
:103EB0005F3F19F0EBC0511134C1EEC00FD198F340
:103EC0009923C9F35523B1F3951B550BBB27AA279B
:103ED00062177307840738F09F5F5F4F220F331F0D
:103EE000441FAA1FA9F333D00E2E3AF0E0E830D0D9
:103EF00091505040E695001CCAF729D0FE2F27D0DC
:103F0000660F771F881FBB1F261737074807AB07A9
:103F1000B0E809F0BB0B802DBF01FF2793585F4F1E
:103F20002AF09E3F510568F0B1C0FBC05F3FECF343
:103F3000983EDCF3869577956795B795F7959F5FE3
:103F4000C9F7880F911D9695879597F90895E1E037
:103F5000660F771F881FBB1F621773078407BA0796
:103F600020F0621B730B840BBA0BEE1F88F7E095F1
:103F70000895BCD088F09F5790F0B92F9927B7517A
:103F8000A0F0D1F0660F771F881F991F1AF0BA951D
:103F9000C9F712C0B13081F0C3D0B1E00895C0C0FC
:103FA000672F782F8827B85F39F0B93FCCF3869513
:103FB00077956795B395D9F73EF490958095709570
:103FC00061957F4F8F4F9F4F0895E89409C097FBED
:103FD0003EF490958095709561957F4F8F4F9F4FE0
:103FE0009923A9F0F92F96E9BB279395F695879524
:103FF00077956795B795F111F8CFFAF4BB0F11F4E7
:1040000060FF1BC06F5F7F4F8F4F9F4F16C088238D
:1040100011F096E911C0772321F09EE8872F762FC3
:1040200005C0662371F096E8862F70E060E02AF004
:104030009A95660F771F881FDAF7880F96958795F0
:1040400097F90895990F0008550FAA0BE0E8FEEFC5
:1040500016161706E807F907C0F012161306E4074C
:10406000F50798F0621B730B840B950B39F40A2645
:1040700061F0232B242B252B21F408950A2609F423
:10408000A140A6958FEF811D811D089597F99F6727
:1040900080E870E060E008959FEF80EC08950024D0
:1040A0000A941616170618060906089500240A949D
:1040B00012161306140605060895092E0394000C23
:1040C00011F4882352F0BB0F40F4BF2B11F460FFB2
:1040D00004C06F5F7F4F8F4F9F4F089557FD9058DB
:1040E000440F551F59F05F3F71F04795880F97FBBC
:1040F000991F61F09F3F79F0879508951216130676
:104100001406551FF2CF4695F1DF08C016161706A4
:104110001806991FF1CF86957105610508940895D9
:10412000E894BB2766277727CB0197F908950BD032
:10413000C4CFB5DF28F0BADF18F0952309F0A6CF79
:10414000ABCF1124EECFCADFA0F3959FD1F3950F2B
:1041500050E0551F629FF001729FBB27F00DB11D0B
:10416000639FAA27F00DB11DAA1F649F6627B00D9B
:10417000A11D661F829F2227B00DA11D621F739F84
:10418000B00DA11D621F839FA00D611D221F749F92
:104190003327A00D611D231F849F600D211D822FD9
:1041A000762F6A2F11249F5750408AF0E1F0882320
:1041B0004AF0EE0FFF1FBB1F661F771F881F91502D
:1041C0005040A9F79E3F510570F060CFAACF5F3FE6
:1041D000ECF3983EDCF3869577956795B795F79560
:1041E000E7959F5FC1F7FE2B880F911D96958795E8
:1041F00097F90895FA01EE0FFF1F3096210531055A
:1042000099F16115710561F48038BFE39B0749F1AD
:1042100068949038810561F08038BFEF9B0741F0CA
:10422000992342F5FF3FE1053105210511F1E8949D
:104230000894E795D901AA2329F4AB2FBE2FF85F84
:10424000D0F310C0FF5F70F4A695E0F7F73950F097
:1042500019F0FF3A38F49F779F930CD00F9007FC2A
:10426000905808953EF018CF60E070E080E89FE33A
:1042700008954FE79F775F934F933F932F939ED07F
:104280002F913F914F915F9152DF05C019F40EF0CD
:10429000FDCE46CF01CF2ADFC8F39638C0F707F826
:1042A0000F92E8942BE33AEA48EB5FE74EDF0F9278
:1042B0000F920F924DB75EB70F92C0D0E6E7F0E0D5
:1042C00016D04F915F91EF91FF91E595EE1FFF1F83
:1042D00049F0FE57E0684427EE0F441FFA95E1F7D6
:1042E0004195550B32D00F9007FE26C00895DF93FD
:1042F000CF931F930F93FF92EF92DF927B018C017C
:10430000689405C0DA2EEF011EDFFE01E894A59146
:104310002591359145915591AEF3EF016BDDFE018D
:104320009701A801DA9479F7DF90EF90FF900F9151
:104330001F91CF91DF9108959B01AC0160E070E087
:1043400080E89FE3AECDA2CEACC0D0DEE8F39923E7
:10435000D9F3940F511DBBF39150504094F059F094
:10436000882332F0660F771F881F91505040C1F7A5
:104370009E3F510544F7880F911D9695879597F9B3
:1043800008955F3FACF0983E9CF0BB2786957795EB
:104390006795B79508F4B1609395C1F7BB0F58F7CF
:1043A00011F460FFE8CF6F5F7F4F8F4F9F4FE3CFD8
:1043B000B8CE0EF076C070CE689468CE97DEC8F3A3
:1043C0009923D1F3C6F3DF93CF931F930F93FF92FB
:1043D000C92FDD2788232AF02197660F771F881FB2
:1043E000DAF720E030E040E85FEB9FE3883920F027
:1043F000803E30F021968F77ECDCEEE9F0E003C0F0
:10440000E8DCEBECF0E073DF8B01BE01EC01FB2E8E
:104410006F5771097595771F880B990BD8DD28E1C7
:1044200032E741E35FE38FDEAF2D9801AE01FF90ED
:104430000F911F91CF91DF91DDDC3FCEFA01DC01BE
:10444000AA0FBB1F9B01AC01BF5728F422273327BB
:10445000442750781FC0B75188F4AB2F00244695ED
:1044600037952795011CA395D2F3002069F0220F00
:10447000331F441FB395DAF30DD0AACC6130710518
:10448000A0E88A07B94630F49B01AC01662777277C
:1044900088279078309621F020833183428353839C
:1044A00008959F3F31F0915020F487957795679557
:1044B000B795880F911D9695879597F9089597FB65
:1044C000072E16F4009407D077FD09D00E94A2228F
:1044D00007FC05D03EF4909581959F4F0895709507
:1044E00061957F4F0895A1E21A2EAA1BBB1BFD0107
:1044F0000DC0AA1FBB1FEE1FFF1FA217B307E407C3
:10450000F50720F0A21BB30BE40BF50B661F771F1A
:10451000881F991F1A9469F76095709580959095FA
:104520009B01AC01BD01CF010895EE0FFF1F059067
:10453000F491E02D09940E94B622B7FF0895821BE2
:10454000930B0895AA1BBB1B51E107C0AA1FBB1FF9
:10455000A617B70710F0A61BB70B881F991F5A950F
:10456000A9F780959095BC01CD010895A29FB00157
:10457000B39FC001A39F700D811D1124911DB29F97
:10458000700D811D1124911D08950F931F93CF93DA
:10459000DF938C01FC0101900020E9F7CF01801B23
:1045A000910B0E944D16EC01009719F0B8010E9482
:1045B000FB22CE01DF91CF911F910F910895FB0156
:1045C000DC0102C001900D9241505040D8F708958F
:1045D000FB01DC018D9181341CF08B350CF4805E85
:1045E000619161341CF06B350CF4605E861B6111C7
:1045F00089F3990B0895FB01DC0101900D920020D5
:10460000E1F70895FB01DC014150504030F08D91FD
:104610000190801919F40020B9F7881B990B0895AF
:1046200011E0C6EFD1E004C0FE010E94972222965D
:0A463000C83FD107C9F7F894FFCF87
:10463A001400E803000044058000726573706F6E11
:10464A00736500506F776572696E67206F6E2E2EE4
:10465A002E202000426F6F7A65426F742072656166
:10466A0064792020004E6F20717565756564206439
:10467A0072696E6B73005368757474696E6720642F
:10468A006F776E2E2E2E006D7367547970650064F5
:10469A0072696E6B4E616D65005175657565642052
:1046AA006472696E6B3A202020004472696E6B2036
:1046BA0063616E63656C6C656420004D616B696E45
:1046CA0067206472696E6B3A2020202020006C6596
:1046DA0064006E756D00720067006200426F6F7A47
:1046EA0065426F742062793A20202020004545589F
:1046FA0020486F757365002D0022006E756C6C0082
:10470A0066616C736500747275650000000000359F
:10471A00089D1C7708A7084D082E082A08000000E3
:10472A000019149D1C57131C133D136F130000002E
:10473A0000C2199D1C6E1997197E19B7190000003D
:04474A0000481C0007
:00000001FF
