:100000000C94D6000C94FE000C94FE000C94FE00A0
:100010000C94FE000C94FE000C94FE000C94FE0068
:100020000C94FE000C94FE000C94FE000C94FE0058
:100030000C94FE000C94FE000C94FE000C94FE0048
:100040000C941D0D0C94FE000C94210F0C94640F65
:100050000C94FE000C94FE000C94FE000C94FE0028
:100060000C94FE000C94FE005601580139013B012E
:100070003D013F01410143014501470149014B0158
:100080004D014F0151015301840A870A940A980ACD
:100090009C0AA00AA40A07634236B79BD8A71A395C
:1000A000685618AEBAAB558C1D3CB7CC5763BD6DC6
:1000B000EDFD753EF6177231BF000000803F08006D
:1000C0000000BE922449123EABAAAA2ABECDCCCCD7
:1000D0004C3E00000080BEABAAAAAA3E0000000071
:1000E000BF000000803F0000000000084178D3BB43
:1000F0004387D1133D190E3CC3BD4282AD2B3E68F0
:10010000EC8276BED98FE1A93E4C80EFFFBE01C4E0
:10011000FF7F3F0000000000000000070002010018
:1001200000030406000000000000000001020408B3
:100130001020408001020408102001020408102051
:10014000040404040404040402020202020203037D
:100150000303030300000000250028002B0000001B
:100160000000240027002A004E414E494E495459B0
:10017000494E46CDCCCC3D0AD7233C17B7D1387772
:10018000CC2B329595E6241FB14F0A000020410088
:1001900000C84200401C4620BCBE4CCA1B0E5AAED2
:1001A000C59D7400BB038A0B2010991111241FBE3A
:1001B000CFEFD8E0DEBFCDBF11E0A0E0B1E0EEEFC1
:1001C000F3E302C005900D92A43AB107D9F723E0FA
:1001D000A4EAB1E001C01D92AA37B207E1F711E02D
:1001E000CCEAD1E004C02297FE010E945E17C43A17
:1001F000D107C9F70E94C8120C94FD190C94000095
:10020000CF92DF92EF92FF920F931F93CF93DF93E2
:100210008B01C0E0D0E06C01EE24D7FCE094FE2C12
:10022000C017D107A4F461E08DE00E94590E64E686
:1002300070E080E090E00E94960D60E08DE00E940A
:10024000590EC701B6010E94960D2196E9CFDF91A4
:10025000CF911F910F91FF90EF90DF90CF90089575
:1002600001978031910508F58C5C9F4FFC010C943F
:100270005C1784E01EC085E01CC086E01AC087E0E1
:1002800018C088E016C089E014C08AE012C08BE074
:1002900010C08CE00EC08EE00CC08FE00AC080E180
:1002A00008C081E106C082E104C0089582E001C077
:1002B00083E090E00895CF92DF92EF92FF92CF9388
:1002C0006B017C01CA010E943001C82F61E08DE002
:1002D0000E94590E60E08C2F0E94590E209100015F
:1002E000309101014091020150910301C701B60113
:1002F0000E9472150E9494140E94960D61E08C2F4A
:100300000E94590E60E08DE0CF91FF90EF90DF905A
:10031000CF900C94590E8F929F92AF92BF92CF9232
:10032000DF92EF92FF920F931F93CF93DF93CDB79E
:10033000DEB761970FB6F894DEBF0FBECDBF5C018C
:10034000009709F4A2C061E083E10E94590E64EFB6
:1003500071E080E090E00E94960D01E010E0809155
:10036000040190910501801791070CF487C04AE0C1
:10037000B801CE010B960E94FC1020E030E04AE06C
:1003800050E0BE016F5F7F4FCE010B960E94291196
:10039000AE014F5F5F4FB50184EB91E00E94EE0A22
:1003A0006C01009709F459C04CE051E0BC0184EBAA
:1003B00091E00E94EE0A7C014EE051E0B60184EB30
:1003C00091E00E94EE0A4C01E114F10409F445C0E9
:1003D000009709F442C0F7018085823049F46185B5
:1003E0007285882777FD8095982F0E94C2140FC0D0
:1003F000833031F4F701C184D284E384F48409C0EA
:10040000843091F5F701818592850E9462176B0116
:100410007C01F4018085823019F48185928512C0B7
:10042000833049F4F40161857285838594850E9447
:100430008F14CB0107C08430D1F4F40181859285FB
:100440000E946617AC01C701B6010E945B0168EE0D
:1004500073E080E090E00E94960DCE010B960E9422
:1004600076100F5F1F4F7BCF02E010E002C003E069
:1004700010E0CE010B960E94761009C060E083E187
:100480000E94590E00E010E002C001E010E0C80137
:1004900061960FB6F894DEBF0FBECDBFDF91CF914E
:1004A0001F910F91FF90EF90DF90CF90BF90AF9092
:1004B0009F908F900895AF92BF92CF92DF92EF926C
:1004C000FF920F931F93CF93DF938130910571F0CB
:1004D0001CF4892BB9F013C08230910561F00397A9
:1004E00071F485E3E82E81E0F82E09C020E1E22EC8
:1004F00021E0F22E04C090E2E92E91E0F92EC0E056
:10050000D0E002C0C1E0D0E084EB91E00E94820B19
:100510008C01BE0184EB91E00E945C0B5C01609158
:10052000AC017091AD0184EB91E00E945C0B6C0119
:1005300095014DE451E0B80184EB91E00E94260B57
:10054000960146E551E0B80184EB91E00E94260B4C
:10055000219729F484EB91E00E94550B05C0B70167
:1005600084EB91E00E946B0B9C014FE551E0B801D8
:1005700084EB91E00E94260B8091AC019091AD013B
:100580008336910529F41092AD011092AC0105C09B
:1005900001969093AD018093AC01C801DF91CF919A
:1005A0001F910F91FF90EF90DF90CF90BF90AF9091
:1005B000089540E855E260E070E084EC91E00E942C
:1005C0009F0F61E082E00E94200E61E083E00E94C4
:1005D000200E61E084E00E94200E61E085E00E9430
:1005E000200E61E086E00E94200E61E087E00E941C
:1005F000200E61E088E00E94200E61E089E00E9408
:10060000200E61E08AE00E94200E61E08BE00E94F3
:10061000200E61E08CE00E94200E61E08EE00E94DE
:10062000200E61E08FE00E94200E61E080E10E94D8
:10063000200E61E081E10E94200E61E082E10E94D3
:10064000200E61E082E00E94590E61E083E00E948A
:10065000590E61E084E00E94590E61E085E00E943D
:10066000590E61E086E00E94590E61E087E00E9429
:10067000590E61E088E00E94590E61E089E00E9415
:10068000590E61E08AE00E94590E61E08BE00E9401
:10069000590E61E08CE00E94590E61E08EE00E94EC
:1006A000590E61E08FE00E94590E61E080E10E94E6
:1006B000590E61E081E10E94590E61E082E10E94E1
:1006C000590E61E083E10E94200E60E083E10E9408
:1006D000590E61E08DE00E94200E64E070E082E33C
:1006E00090E00E94000184EA91E00C94F5070F93DA
:1006F0001F93CF93DF9384EA91E00E94290488231B
:1007000021F084EA91E00E94D40784EA91E00E94FB
:100710002904882359F164EA71E084EB91E00E9496
:10072000A909EC010E948B018C01BE0184EB91E0D0
:100730000E94B20484EA91E00E94F507C8010E9479
:100740005B02EC0144EA51E0BC0184EB91E00E94C1
:10075000AD0A84EC91E00E94EF11BE0184EB91E0C0
:10076000DF91CF911F910F910C94B204DF91CF9143
:100770001F910F9108950F9300E020E040E060E0AA
:100780008EEA91E00E948D111092A7011092A601AD
:100790008FE791E09093A5018093A40184EC91E010
:1007A0009093A9018093A8018FEF9FEF9093AB01E5
:1007B0008093AA010F910895FC0184819581089589
:1007C000772767FD7095FC01778366830895CF9343
:1007D000DF931F92CDB7DEB7DC01ED91FC9104846D
:1007E000F585E02D69830995DC01ED91FC9101907F
:1007F000F081E02D69810F90DF91CF910994CF9224
:10080000DF92EF92FF920F931F93CF93DF937C01C0
:100810006A01EB0100E010E00C151D0581F0D70125
:10082000ED91FC910680F781E02DC70109958F3F7E
:10083000BFEF9B0721F089930F5F1F4FEDCFC801DA
:10084000DF91CF911F910F91FF90EF90DF90CF90AC
:100850000895CF93DF93EC018E819F81019629F556
:10086000E881F9810484F585E02DCE010995DC014C
:10087000ED91FC910480F581E02D0995892B99F08B
:10088000E881F9810680F781E02DCE01099581325A
:10089000910534F3E881F9810284F385E02D682F16
:1008A000CE01099502C080E001C081E0DF91CF91C7
:1008B0000895CF92DF92EF92FF92CF93DF93EC01F6
:1008C0008E819F818F3F2FEF920759F02FEF3FEFDF
:1008D0003F832E83DF91CF91FF90EF90DF90CF90F9
:1008E00008950E94670D6B017C0184EFC80E81E0C2
:1008F000D81EE11CF11CE881F9810484F585E02D06
:10090000CE010995DC01ED91FC910480F581E02D8B
:100910000995892B39F40E94670D6C157D058E05AC
:100920009F0548F3E881F9810484F585E02DCE0127
:100930000995DC01ED91FC910680F781E02DDF91B6
:10094000CF91FF90EF90DF90CF9009948DE090E0F1
:100950000E94F60B009729F02DE0FC0111922A95D8
:10096000E9F70895EF92FF920F931F93CF93DF93D0
:100970008C01EB01209709F1EA80FB80888587FDD7
:1009800008C06E817F816115710519F0C8010E9450
:10099000B2048885843031F489859A85009711F0F6
:1009A0000E948E0C88819981009711F00E948E0C14
:1009B000CE010E948E0CE701DDCFDF91CF911F9118
:1009C0000F91FF90EF9008952F923F924F925F9278
:1009D0006F927F928F929F92AF92BF92CF92DF924F
:1009E000EF92FF920F931F93CF93DF9300D01F924C
:1009F000CDB7DEB78C011B01DC01ED91FC910680C7
:100A0000F781E02D09959B838A83019619F48FEF76
:100A10009FEF42C1EA81FB81BD9781F4D801ED913E
:100A2000FC910680F781E02DC80109959B838A839C
:100A3000019669F388248A94982C03C088248394AF
:100A4000912C8A819B81C097C12CD12C0A97D0F41C
:100A50009AE0F92EF601FE9E6001FF9ED00C112453
:100A60008A819B81C097C80ED91ED801ED91FC9157
:100A70000680F781E02DC80109959B838A83C09782
:100A80000A9740F3EA81FB81EE32F10599F0CF013C
:100A90008F7D8534910571F0C89CC001C99C900D73
:100AA000D89C900D1124D1011A969C938E9319977E
:100AB00082E0E5C0B601882777FD8095982F0E94D7
:100AC000C2146B017C01EA81FB81BE97C9F5D80194
:100AD000ED91FC910680F781E02DC80109959B837B
:100AE0008A83A12CB12C20E030E040E251E4C70120
:100AF000B6010E9472156B017C016A817B81605393
:100B00007109882777FD8095982F0E94C2149B0158
:100B1000AC01C701B6010E94BF136B017C01B1E0BB
:100B2000AB1AB108D801ED91FC910680F781E02D58
:100B3000C80109959B838A83C0970A97A0F202C0D7
:100B4000A12CB12C8A819B818F7D8534910509F080
:100B500048C0D801ED91FC910680F781E02DC801D5
:100B600009959B838A838B9761F4D801ED91FC9161
:100B70000680F781E02DC80109959B838A83B1E047
:100B80000FC0EA81FB81BD9769F4D801ED91FC911A
:100B90000680F781E02DC80109959B838A83BFEF0A
:100BA000B98302C0E1E0E983612C712C8AE0582E00
:100BB0008A819B81C0978A309105B8F49301529E37
:100BC0003001539E700C1124680E791ED801ED91EE
:100BD000FC910680F781E02DC80109959B838A83EB
:100BE000E7CFB1E0B983612C712CB401882777FD80
:100BF0008095982F0E94C214A70196010E94721539
:100C00006B017C01B501882777FD8095982F0E94A4
:100C1000C2144B015C01B301882777FD8095982FA2
:100C20000E94C2142B013C01E9816E2F772767FDDA
:100C30007095872F972F0E94C2149B01AC01C301AE
:100C4000B2010E9472159B01AC01C501B4010E9462
:100C5000BF139B01AC0160E070E080E291E40E9470
:100C6000D5159B01AC01C701B6010E947215D101D7
:100C700019966D937D938D939C931C9783E01896A2
:100C80008C93D801ED91FC910284F385E02D6A816B
:100C9000C801099580E090E00F900F900F90DF91D0
:100CA000CF911F910F91FF90EF90DF90CF90BF9069
:100CB000AF909F908F907F906F905F904F903F90FC
:100CC0002F9008956115710539F0FB0161857285DA
:100CD0004AE050E00C94A61280E090E008958F92D4
:100CE0009F92AF92BF92CF92DF92EF92FF920F93BB
:100CF0001F93CF93DF93EC016115710509F469C06F
:100D0000FB01C184D284E384F48420E030E0A901B3
:100D1000C701B6010E94231487FF09C065E671E090
:100D2000CE010E94E611F7FAF094F7F8F094C701AB
:100D3000B6010E9494144B015C012AE030E0AB0143
:100D4000BC01CE010E94AE1267E671E0CE010E94A6
:100D5000E611C501B4010E94C0149B01AC01C7019A
:100D6000B6010E94BE132CEA35EC47EA56E30E9416
:100D7000BF136B017C0105E010E020E030E040E2B1
:100D800051E4C701B6010E9472156B017C010E94FB
:100D900094144B015C014AE050E0CE010E94C21263
:100DA000B40180E090E00E94C0149B01AC01C70137
:100DB000B6010E94BE136B017C0120E030E0A90166
:100DC0000E942314882329F00150110901151105EF
:100DD000A1F680E090E0DF91CF911F910F91FF90FD
:100DE000EF90DF90CF90BF90AF909F908F9008953D
:100DF000EF92FF920F931F93CF93DF938C017B01B0
:100E0000DC01ED91FC910680F781E02D0995829738
:100E1000B9F484E0F70180870E94950BEC010097FC
:100E200079F0D801ED91FC910680F781E02DC801A1
:100E300009958F3FBFEF9B0731F4CE010E94F10B64
:100E40008FEF9FEF56C08232910509F44AC080327D
:100E500091050CF446C08C35910511F0BE013EC0E1
:100E6000D801ED91FC910680F781E02DC80109952C
:100E70008F3FBFEF9B0709F38236910539F15CF490
:100E80008F32910501F18C359105D1F0829749F6A9
:100E9000BE0182E223C08E369105D9F03CF486363D
:100EA000910509F0BECFBE018CE018C082379105D4
:100EB00099F08437910509F0B4CFBE0189E00EC0E6
:100EC000BE018CE50BC0BE018FE208C0BE0188E008
:100ED00005C0BE018AE002C0BE018DE00E94B20BD7
:100EE000A0CFCE010E94C60BF7019287818780E0D8
:100EF00090E0DF91CF911F910F91FF90EF900895B7
:100F00000F931F93CF93DF93EC018B0169E671E0A0
:100F10000E94E61101151105B9F1F80161918F01E7
:100F2000662391F1603220F0623211F06C3541F5A8
:100F30006CE5CE010E94E811F801319780818C3078
:100F4000D1F044F48930D9F08A30B9F0883029F7EB
:100F500062E616C0823259F024F48D30F1F662E771
:100F60000FC08F3231F08C35C1F66CE509C062E2FA
:100F700007C06FE205C066E603C06EE601C064E725
:100F8000CE010E94E811C9CF62E2CE010E94E811B1
:100F900080E090E0DF91CF911F910F910895FB01C8
:100FA000618572850C948007CF93DF93EC01E88113
:100FB000F9810680F781E02DCE0109958F3F2FEF53
:100FC000920771F0E881F9818132910594F30284EE
:100FD000F385E02D682FCE01099580E090E002C0F6
:100FE0008FEF9FEFDF91CF910895CF93DF93EC01C7
:100FF000E881F9810680F781E02DCE0109950196FF
:10100000B9F78FEF9FEFDF91CF9108959F92AF9245
:10101000BF92CF92DF92EF92FF920F931F93CF93E5
:10102000DF93EC016B015A01E881F9810680F781B9
:10103000E02D09958B37910519F08FEF9FEF72C066
:1010400086E0F6018087CE010E94D407E881F9810D
:101050000680F781E02DCE0109958D37910509F4C1
:101060005FC0E881F9810284F385E02D682FCE010D
:10107000099599249A940E94A6048C010097E9F29C
:10108000992021F0F6019783868306C0F7019383A8
:101090008283FC01F582E482CE010E94D407B8016C
:1010A000CE010E94F806019641F2CE010E94D407BB
:1010B000F801818592859183808312861186E8816B
:1010C000F9810680F781E02DCE010995CA9709F0D4
:1010D000B4CFCE010E94D407A501B801CE010E9471
:1010E0009E08019609F4A9CFCE010E94D407E88199
:1010F000F9810680F781E02DCE010995912C7801C8
:101100008C32910509F4B7CF21E030E08D3791059D
:1011100011F420E030E088279927821B930B02C04E
:1011200080E090E0DF91CF911F910F91FF90EF90C1
:10113000DF90CF90BF90AF909F900895AF92BF92F5
:10114000CF92DF92EF92FF920F931F93CF93DF9393
:1011500000D000D01F92CDB7DEB78C016B015A01D1
:101160000E94D407019609F4B4C0D801ED91FC9116
:101170000680F781E02DC80109957C018F3FBFEF04
:101180009B0709F4A6C0D801ED91FC910284F38578
:10119000E02D682FC8010995B2E2EB16F10429F49D
:1011A000B601C8010E94F80696C0EDE2EE16F10401
:1011B00021F0C701C0970A9728F4B601C8010E9420
:1011C000E40489C0FBE5EF16F10431F4A501B60192
:1011D000C8010E94AD097FC02BE7E216F10431F48B
:1011E000A501B601C8010E94060875C08EE6E81682
:1011F000F10411F519821A821B821C82D801ED912B
:10120000FC910084F185E02D44E050E0BE016F5F69
:101210007F4FC8010995049709F05BC044E050E096
:101220006BE671E0CE0101960E94C917009709F0A4
:1012300050C0F60110864FC0F6E6EF16F10419F51E
:10124000CE0101967C0185E0D7011D928A95E9F7D0
:10125000D801ED91FC910084F185E02D45E050E04E
:10126000B701C80109950597A1F545E050E060E791
:1012700071E0C7010E94C917009759F521E0F601F6
:101280002087118628C0F4E7EF16F10411F51982C2
:101290001A821B821C82D801ED91FC910084F18599
:1012A000E02D44E050E0BE016F5F7F4FC80109951B
:1012B000049779F444E050E066E771E0CE010196CE
:1012C0000E94C917009729F421E0F60120872187A1
:1012D00002C08FEF9FEF0F900F900F900F900F9025
:1012E000DF91CF911F910F91FF90EF90DF90CF9002
:1012F000BF90AF900895CF92DF92EF92FF920F933D
:101300001F93CF93DF937C018B016A0161157105F7
:1013100099F00E94A604EC01009771F0C8010E94A8
:10132000D407A601BE01C8010E949E08019639F4A7
:10133000BE01C7010E94B20480E090E001C0CE016E
:10134000DF91CF911F910F91FF90EF90DF90CF90A1
:10135000089540E050E00C947B099F92AF92BF92B9
:10136000CF92DF92EF92FF920F931F93CF93DF9371
:10137000EC016B015A01E881F9810680F781E02DCB
:1013800009958B35910519F08FEF9FEF53C085E0DC
:10139000F6018087CE010E94D407E881F98106809A
:1013A000F781E02DCE0109958D35910509F440C0F6
:1013B000E881F9810284F385E02D682FCE0109953B
:1013C00099249A940E94A6048C010097E9F299202E
:1013D00021F0F6019783868306C0F7019383828309
:1013E000FC01F582E482CE010E94D407A501B80178
:1013F000CE010E949E08892B39F6CE010E94D407A7
:10140000E881F9810680F781E02DCE010995912CC4
:1014100078018C329105B1F221E030E08D359105F3
:1014200011F420E030E088279927821B930B02C03B
:1014300080E090E0DF91CF911F910F91FF90EF90AE
:10144000DF90CF90BF90AF909F9008950F931F9320
:10145000CF93DF93EC0161157105D1F1FB0106819A
:1014600017816BE7CE010E94E811019619F48FEF06
:101470009FEF30C001151105E1F0F8016081718125
:10148000CE010E948007019691F36AE3CE010E948B
:10149000E811019661F3B801CE010E946F0A01962E
:1014A00031F3F801028113810115110519F36CE282
:1014B000D9CF6DE7CE010E94E81121E030E001961E
:1014C00011F020E030E088279927821B930B02C09F
:1014D00080E090E0DF91CF911F910F9108950F93DD
:1014E0001F9361157105A1F1FB014085042F1127A0
:1014F00007FD1095212F312F0730110548F5F80110
:10150000EC5BFF4F0C945C176BE671E006C0FB01CF
:101510002185222331F066E771E01F910F910C9431
:10152000E61160E771E0F9CF1F910F910C9462060C
:101530001F910F910C946F061F910F910C94CF0780
:101540001F910F910C94B00A1F910F910C94260AD1
:1015500080E090E01F910F910895CA010C946F0AEA
:101560000F931F93CF93DF938C016115710579F170
:10157000FB01C681D7816BE50E94E811019671F4E9
:101580008FEF9FEF26C0BE01C8010E946F0A01962F
:10159000B9F30A80DB81C02D209719F4209799F7C1
:1015A00007C06CE2C8010E94E8110196B9F7E8CFC4
:1015B0006DE5C8010E94E81121E030E0019611F0CC
:1015C00020E030E088279927821B930B02C080E03F
:1015D00090E0DF91CF911F910F9108950F931F938A
:1015E000CF93DF938A01FB01C681D781209759F001
:1015F000B801888199810E94AF17892B21F00A8058
:10160000DB81C02DF3CFCE01DF91CF911F910F91E0
:101610000895DB011696ED91FC9117974115510540
:10162000A1F0309729F417965C934E93169708957E
:1016300082819381009711F0FC01FACF538342839A
:10164000DA011596FC93EE9314970895CF92DF92EA
:10165000EF92FF920F931F93CF93DF938C017B0147
:101660006A01E9012097C1F088819981009711F002
:101670000E948E0CC6010E948C1799838883AE014C
:10168000B701C801DF91CF911F910F91FF90EF90AB
:10169000DF90CF900C94090BDF91CF911F910F91A8
:1016A000FF90EF90DF90CF9008950E94A6040097DE
:1016B00011F0FC0110860895CF93DF93EB010E9497
:1016C000A604009729F022E0FC012087D287C18779
:1016D000DF91CF9108950F931F93CF93DF938B01E9
:1016E0000E94A604EC01009739F084E08887C801C5
:1016F0000E948C179A878987CE01DF91CF911F9125
:101700000F9108950E94A604009719F026E0FC01AD
:10171000208708950F9300E020E040E060E085EB33
:1017200091E00E948D110F91089586E090E00E9453
:10173000F60B0097B1F0E4E7F2E0DC01ED93FC93E7
:1017400020E031E0DF01A9011D9241505040E1F756
:10175000DC0113963C932E93129715961C921E92C1
:1017600014970895FB012481358142815381241708
:10177000350750F4A081B181A20FB31F8C938481EF
:10178000958101969583848380E008950F931F933C
:10179000CF93DF93EC018C819D81009741F0E8812C
:1017A000F981E80FF91F31978081882321F0BE016C
:1017B00080E00E94B20B8C819D810E94F60B8C010F
:1017C000009749F064E772E00E94C21719821882FC
:1017D000CE010E948E0CC801DF91CF911F910F9115
:1017E0000895009711F00C948E0C0895CF93DF9319
:1017F0008230910510F482E090E0E0917603F09160
:10180000770320E030E0A0E0B0E0309739F140818C
:10181000518148175907B8F04817590771F4828168
:101820009381109729F013969C938E9312972CC056
:10183000909377038093760327C02115310531F00B
:101840004217530718F0A901DB0101C0EF019A010B
:10185000BD01DF010280F381E02DD7CF21153105D5
:10186000F9F0281B390B2430310580F48A819B81E3
:101870006115710521F0FB019383828304C090936D
:10188000770380937603FE01329644C0FE01E20F97
:10189000F31F8193919322503109398328833AC0F1
:1018A0002091740330917503232B41F4209108019A
:1018B0003091090130937503209374032091060140
:1018C000309107012115310541F42DB73EB7409104
:1018D0000A0150910B01241B350BE0917403F09128
:1018E0007503E217F307A0F42E1B3F0B28173907E7
:1018F00078F0AC014E5F5F4F2417350748F04E0F6C
:101900005F1F50937503409374038193919302C0BA
:10191000E0E0F0E0CF01DF91CF910895CF93DF9326
:10192000009709F487C0FC01329713821282C0919C
:101930007603D0917703209781F420813181280F9D
:10194000391F80917403909175038217930779F57D
:10195000F0937503E09374036DC0DE0120E030E086
:10196000AE17BF0750F412964D915C9113979D01ED
:101970004115510509F1DA01F3CFB383A283408108
:101980005181840F951F8A179B0771F48D919C914B
:101990001197840F951F02969183808312968D91E3
:1019A0009C911397938382832115310529F4F09339
:1019B0007703E09376033EC0D9011396FC93EE9330
:1019C00012974D915D91A40FB51FEA17FB0779F4AB
:1019D00080819181840F951F0296D90111969C9365
:1019E0008E938281938113969C938E931297E0E05D
:1019F000F0E08A819B81009719F0FE01EC01F9CF9C
:101A0000CE01029628813981820F931F20917403A1
:101A1000309175032817390769F4309729F410922B
:101A200077031092760302C013821282D09375035B
:101A3000C0937403DF91CF9108951F920F920FB658
:101A40000F9211242F933F938F939F93AF93BF9344
:101A50008091BC019091BD01A091BE01B091BF01E8
:101A60003091BB0123E0230F2D3720F40196A11DF7
:101A7000B11D05C026E8230F0296A11DB11D2093BC
:101A8000BB018093BC019093BD01A093BE01B093B4
:101A9000BF018091C0019091C101A091C201B0919C
:101AA000C3010196A11DB11D8093C0019093C10196
:101AB000A093C201B093C301BF91AF919F918F9149
:101AC0003F912F910F900FBE0F901F9018952FB739
:101AD000F8946091BC017091BD018091BE0190911C
:101AE000BF012FBF08953FB7F8948091C001909136
:101AF000C101A091C201B091C30126B5A89B05C048
:101B00002F3F19F00196A11DB11D3FBF6627782F09
:101B1000892F9A2F620F711D811D911D42E0660F62
:101B2000771F881F991F4A95D1F70895CF92DF92AA
:101B3000EF92FF92CF93DF936B017C010E94730DB4
:101B4000EB01C114D104E104F10479F00E94730D9A
:101B50006C1B7D0B683E7340A0F381E0C81AD1086E
:101B6000E108F108C851DC4FECCFDF91CF91FF9035
:101B7000EF90DF90CF900895789484B5826084BD13
:101B800084B5816084BD85B5826085BD85B5816081
:101B900085BDEEE6F0E0808181608083E1E8F0E0E1
:101BA0001082808182608083808181608083E0E810
:101BB000F0E0808181608083E1EBF0E080818460EF
:101BC0008083E0EBF0E0808181608083EAE7F0E0F1
:101BD0008081846080838081826080838081816055
:101BE00080838081806880831092C1000895833053
:101BF00081F028F4813099F08230A1F00895863088
:101C0000A9F08730B9F08430D1F4809180008F7DC5
:101C100003C0809180008F7780938000089584B501
:101C20008F7702C084B58F7D84BD08958091B00008
:101C30008F7703C08091B0008F7D8093B0000895AE
:101C4000CF93DF9390E0FC01E45DFE4F2491FC0113
:101C5000E05CFE4F8491882349F190E0880F991F42
:101C6000FC01E25AFE4FA591B4918C5A9E4FFC01A3
:101C7000C591D4919FB7611108C0F8948C912095BB
:101C800082238C93888182230AC0623051F4F894B5
:101C90008C91322F309583238C938881822B88837B
:101CA00004C0F8948C91822B8C939FBFDF91CF91CD
:101CB00008950F931F93CF93DF931F92CDB7DEB795
:101CC000282F30E0F901E85EFE4F8491F901E45DD0
:101CD000FE4F1491F901E05CFE4F04910023C9F01E
:101CE000882321F069830E94F70D6981E02FF0E0DD
:101CF000EE0FFF1FEC5AFE4FA591B4919FB7F894D9
:101D00008C91611103C01095812301C0812B8C93AC
:101D10009FBF0F90DF91CF911F910F910895FC010C
:101D200024853585F901E05CFF4F808191813296F1
:101D300020813181821B930B8F7399270895FC01B9
:101D400084859585FC01E05CFF4F4081518132968E
:101D5000208131814217530741F00190F081E02D3D
:101D6000E80FF91F808190E008958FEF9FEF0895AD
:101D7000FC0184859585FC01E05CFF4F4081518129
:101D80003296208131814217530779F0A081B181C9
:101D9000A80FB91F8C91208131812F5F3F4F2F7386
:101DA00033273183208390E008958FEF9FEF0895CC
:101DB000FC0181A1882329F0A489B5898C9186FF33
:101DC000FBCF11A20895CF93DF93FC0126853785C1
:101DD000D901A05CBF4F8D919C91119701968F7393
:101DE0009927E901CE5BDF4F488159818417950718
:101DF000D9F30D90BC91A02DA20FB31F6C93A685B3
:101E0000B785A05CBF4F11969C938E93A689B78926
:101E10002C9181E090E0078C02C0880F991F0A94F2
:101E2000E2F7282B2C9381E081A30488F589E02D2B
:101E300080818064808381E090E0DF91CF9108957C
:101E400008951F920F920FB60F9211242F933F9374
:101E50004F938F939F93EF93FF938091C00082FDE8
:101E60001CC04091C60080916A0290916B0201965D
:101E70008F73992720916C0230916D02821793071E
:101E800071F0E0916A02F0916B02E65DFD4F4083D4
:101E900090936B0280936A0202C08091C600FF910A
:101EA000EF919F918F914F913F912F910F900FBE86
:101EB0000F901F90189584EC91E00E948F0E892B53
:101EC00011F00C94200F08951F920F920FB60F92ED
:101ED00011242F933F938F939F93EF93FF93209120
:101EE000260230912702809128029091290228171A
:101EF000390731F48091C1008F7D8093C10014C0F7
:101F0000E0912802F0912902EA51FE4F2081809150
:101F100028029091290201968F73992790932902A4
:101F2000809328022093C600FF91EF919F918F919B
:101F30003F912F910F900FBE0F901F901895CF9249
:101F4000DF92EF92FF92CF93DF93EC016A017B0166
:101F5000411581EE580761057105F9F0EC89FD899D
:101F600081E090E008A002C0880F991F0A94E2F770
:101F7000808360E079E08DE390E0A70196010E9404
:101F80003A1721503109410951095695479537951E
:101F90002795211580E1380798F0EC89FD8910829A
:101FA00060E874E88EE190E0A70196010E943A177C
:101FB0002150310941095109569547953795279583
:101FC000E889F9893083EA89FB89208319A2EE899F
:101FD000FF89408181E090E09C010C8C02C0220FBF
:101FE000331F0A94E2F7422B4083EE89FF89408138
:101FF0009C010D8C02C0220F331F0A94E2F7422B82
:102000004083EE89FF8940819C010E8C02C0220F23
:10201000331F0A94E2F7422B4083EE89FF89208127
:102020000F8C02C0880F991F0A94E2F780958223D3
:102030008083DF91CF91FF90EF90DF90CF90089554
:102040001092C7011092C60188EE93E0A0E0B0E0C4
:102050008093C8019093C901A093CA01B093CB01AA
:1020600081E991E09093C5018093C4018AE292E0F6
:102070009093D1018093D00186EE91E09093D301AB
:102080008093D20185EC90E09093D5018093D401A8
:1020900084EC90E09093D7018093D60180EC90E09F
:1020A0009093D9018093D80181EC90E09093DB016B
:1020B0008093DA0182EC90E09093DD018093DC0163
:1020C00086EC90E09093DF018093DE0184E08093C2
:1020D000E00183E08093E10187E08093E20185E005
:1020E0008093E30181E08093E4010895FC01808105
:1020F00091810C948E0CCF93DF93EC0188819981B0
:10210000009711F00E948E0C198218821D821C8289
:102110001B821A82DF91CF9108950F931F93CF9363
:10212000DF93EC018B016F5F7F4F888199810E9463
:10213000D512009731F0998388831B830A8381E04D
:1021400001C080E0DF91CF911F910F910895CF934F
:10215000DF93EC0188819981892B29F08A819B8109
:102160008617970760F4CE010E948D10882341F0F6
:102170008C819D81892B19F4E881F981108281E09D
:10218000DF91CF910895EF92FF920F931F93CF931A
:10219000DF93EC017B018A01BA010E94A710811133
:1021A00004C0CE010E947B1007C01D830C83B701C1
:1021B000888199810E94C217CE01DF91CF911F9132
:1021C0000F91FF90EF900895CF93DF93EC0161158D
:1021D000710561F0FB0101900020E9F7AF0141506A
:1021E0005109461B570B0E94C31002C00E947B106E
:1021F000CE01DF91CF9108950F931F93CF93DF937B
:10220000CDB7DEB762970FB6F894DEBF0FBECDBF75
:102210008C01CB01F8011182108213821282158287
:102220001482168250E0BE016F5F7F4F0E94E61756
:10223000BE016F5F7F4FC8010E94E41062960FB627
:10224000F894DEBF0FBECDBFDF91CF911F910F91EC
:1022500008950F931F93CF93DF93EB014115510521
:10226000E9F02097D9F0FC016481758126173707C2
:10227000A0F4621B730B8A010150110960177107EA
:1022800008F48B01FC0160817181620F731FA8014A
:10229000CE010E94D717C00FD11F1882DF91CF91B6
:1022A0001F910F910895AF92BF92CF92DF92EF925C
:1022B000FF920F931F93CF93DF936C017B01C0E0DC
:1022C000D0E000E010E0F601EC0FFD1F4AE050E026
:1022D0006281C7010E94BB125C016EE2C7010E94CD
:1022E000E8118A0D9B1D080F191F2196C330D105D7
:1022F00051F74AE050E0F6016581C7010E94BB1228
:10230000800F911FDF91CF911F910F91FF90EF9060
:10231000DF90CF90BF90AF9008950F93FC0181EABA
:1023200091E09183808362834383248305830F91AB
:10233000089581EA91E090936F0280936E0210926B
:10234000700210927102109272021092730208953C
:10235000CF92DF92EF92FF920F931F93CF93DF9371
:102360006C017A01EB01E60EF71E00E010E0CE15DD
:10237000DF0561F06991D601ED91FC910190F0814A
:10238000E02DC6010995080F191FF1CFC801DF9193
:10239000CF911F910F91FF90EF90DF90CF90089514
:1023A0006115710581F0DB010D900020E9F7AD01A9
:1023B00041505109461B570BDC01ED91FC91028005
:1023C000F381E02D099480E090E008950C94D01101
:1023D000DC01ED91FC910190F081E02D09940F93C7
:1023E0001F93CF93DF93EC016DE00E94E8118C0105
:1023F0006AE0CE010E94E811800F911FDF91CF911A
:102400001F910F9108958F929F92AF92BF92CF929A
:10241000DF92EF92FF920F931F93CF93DF93CDB78D
:10242000DEB7A1970FB6F894DEBF0FBECDBF7C011B
:10243000C42EE52FCB01D22E19A221E02D1510F0CC
:102440002AE0D22E8E010F5D1F4F8D2C912CA12CD6
:10245000B12C6C2D7E2FA50194010E943A178C2D72
:10246000D29E80191124015011098A3014F4805D24
:1024700001C0895CF80180832115310541055105B2
:1024800021F0C22EE32FCA01E4CFB801C7010E9498
:10249000D011A1960FB6F894DEBF0FBECDBFDF916D
:1024A000CF911F910F91FF90EF90DF90CF90BF9051
:1024B000AF909F908F900895CF92DF92EF92FF920E
:1024C0000F931F93CF93DF93EC016A017B012115DA
:1024D000310579F4E881F9810190F081E02D642FD4
:1024E000DF91CF911F910F91FF90EF90DF90CF90F0
:1024F00009942A303105E9F477FF1AC06DE20E9491
:10250000E8118C0144275527BA014C195D096E0961
:102510007F092AE0CE010E940312800F911FDF91F4
:10252000CF911F910F91FF90EF90DF90CF90089582
:102530002AE0B701A601CE01DF91CF911F910F9143
:10254000FF90EF90DF90CF900C9403129A01AB01B3
:10255000662757FD6095762F0C945C122115310586
:1025600041F4DC01ED91FC910190F081E02D642FAC
:1025700009940C9403129A01462F50E060E070E039
:102580000C94AE129A01AB0160E070E00C94AE12B4
:102590000E94BC0D0E94D902CBE5DFE00E947703C8
:1025A0002097E1F30E945B0FF9CF6F927F928F9299
:1025B0009F92AF92BF92CF92DF92EF92FF920F93D2
:1025C0001F93CF93DF93EC01CB01209781F4DF9130
:1025D000CF911F910F91FF90EF90DF90CF90BF9020
:1025E000AF909F908F907F906F900C94F60BFE01B0
:1025F000E60FF71F9E0122503109E217F30708F496
:10260000ACC0D9010D911C91119706171707B8F0AE
:102610000530110508F49FC0A80144505109461720
:10262000570708F498C002501109061B170B0193B5
:1026300011936D937C93CF010E948E0C8CC05B0133
:10264000A01AB10A4E01800E911EA0917603B0919E
:102650007703612C712C60E070E0109709F449C099
:10266000A815B905C9F5ED90FC901197670142E0F6
:10267000C40ED11CCA14DB0478F147018A189B08E8
:10268000640142E0C40ED11C1296BC9012971396BE
:10269000AC91B5E0CB16D10440F0B282A383918215
:1026A0008082D9018D939C9309C00E5F1F4F0E0D40
:1026B0001F1DF90111830083EB2DFA2F61157105A0
:1026C00031F0DB011396FC93EE93129744C0F09324
:1026D0007703E09376033FC06D917C911197661666
:1026E000770608F43B01BD0112960D90BC91A02D18
:1026F000B4CF609174037091750368157905E9F49E
:1027000068167906D0F440910601509107014115F1
:10271000510541F44DB75EB760910A0170910B010C
:10272000461B570BE417F507C0F4F0937503E093CD
:102730007403F901918380830EC00E94F60B7C0123
:10274000009759F0A801BE010E94A617CE010E9471
:102750008E0CC70104C0CE0102C080E090E0DF9182
:10276000CF911F910F91FF90EF90DF90CF90BF908E
:10277000AF909F908F907F906F9008955058BB2797
:10278000AA270ED075C166D130F06BD120F031F49C
:102790009F3F11F41EF45BC10EF4E095E7FB51C1BD
:1027A000E92F77D180F3BA1762077307840795077B
:1027B00018F071F49EF58FC10EF4E0950B2EBA2F30
:1027C000A02D0B01B90190010C01CA01A001112437
:1027D000FF27591B99F0593F50F4503E68F11A16E3
:1027E000F040A22F232F342F4427585FF3CF469574
:1027F00037952795A795F0405395C9F77EF41F1696
:10280000BA0B620B730B840BBAF09150A1F0FF0F5F
:10281000BB1F661F771F881FC2F70EC0BA0F621F4B
:10282000731F841F48F4879577956795B795F7953B
:102830009E3F08F0B3CF9395880F08F09927EE0FCD
:10284000979587950895D9D008F481E008950CD024
:102850000FC107D140F0FED030F021F45F3F19F0F6
:10286000F0C0511139C1F3C014D198F39923C9F3C1
:102870005523B1F3951B550BBB27AA276217730786
:10288000840738F09F5F5F4F220F331F441FAA1F3A
:10289000A9F333D00E2E3AF0E0E830D091505040FA
:1028A000E695001CCAF729D0FE2F27D0660F771FA8
:1028B000881FBB1F261737074807AB07B0E809F08A
:1028C000BB0B802DBF01FF2793585F4F2AF09E3F1F
:1028D000510568F0B6C000C15F3FECF3983EDCF3F1
:1028E000869577956795B795F7959F5FC9F7880F98
:1028F000911D9695879597F90895E1E0660F771FEA
:10290000881FBB1F621773078407BA0720F0621B7A
:10291000730B840BBA0BEE1F88F7E095089504D073
:102920006894B111D9C00895BCD088F09F5790F039
:10293000B92F9927B751A0F0D1F0660F771F881FE4
:10294000991F1AF0BA95C9F712C0B13081F0C3D0FF
:10295000B1E00895C0C0672F782F8827B85F39F09D
:10296000B93FCCF3869577956795B395D9F73EF443
:1029700090958095709561957F4F8F4F9F4F0895EB
:10298000E89409C097FB3EF4909580957095619509
:102990007F4F8F4F9F4F9923A9F0F92F96E9BB27BF
:1029A0009395F695879577956795B795F111F8CF3B
:1029B000FAF4BB0F11F460FF1BC06F5F7F4F8F4FA6
:1029C0009F4F16C0882311F096E911C0772321F09C
:1029D0009EE8872F762F05C0662371F096E8862F34
:1029E00070E060E02AF09A95660F771F881FDAF78B
:1029F000880F9695879597F90895990F0008550FB8
:102A0000AA0BE0E8FEEF16161706E807F907C0F074
:102A100012161306E407F50798F0621B730B840B7C
:102A2000950B39F40A2661F0232B242B252B21F456
:102A300008950A2609F4A140A6958FEF811D811DF6
:102A4000089597F99F6780E870E060E008959FEF30
:102A500080EC089500240A94161617061806090635
:102A6000089500240A941216130614060506089504
:102A7000092E0394000C11F4882352F0BB0F40F48C
:102A8000BF2B11F460FF04C06F5F7F4F8F4F9F4FCC
:102A9000089557FD9058440F551F59F05F3F71F04E
:102AA0004795880F97FB991F61F09F3F79F08795B5
:102AB0000895121613061406551FF2CF4695F1DF3E
:102AC00008C0161617061806991FF1CF86957105CE
:102AD000610508940895E894BB2766277727CB0102
:102AE00097F908950BD0C4CFB5DF28F0BADF18F0FE
:102AF000952309F0A6CFABCF1124EECFCADFA0F308
:102B0000959FD1F3950F50E0551F629FF001729F82
:102B1000BB27F00DB11D639FAA27F00DB11DAA1FA1
:102B2000649F6627B00DA11D661F829F2227B00DEE
:102B3000A11D621F739FB00DA11D621F839FA00D79
:102B4000611D221F749F3327A00D611D231F849FC9
:102B5000600D211D822F762F6A2F11249F57504020
:102B60008AF0E1F088234AF0EE0FFF1FBB1F661FBB
:102B7000771F881F91505040A9F79E3F510570F074
:102B800060CFAACF5F3FECF3983EDCF38695779554
:102B90006795B795F795E7959F5FC1F7FE2B880F6F
:102BA000911D9695879597F90895FA01EE0FFF1FED
:102BB00030962105310599F16115710561F4803870
:102BC000BFE39B0749F168949038810561F0803834
:102BD000BFEF9B0741F0992342F5FF3FE105310527
:102BE000210511F1E8940894E795D901AA2329F465
:102BF000AB2FBE2FF85FD0F310C0FF5F70F4A69527
:102C0000E0F7F73950F019F0FF3A38F49F779F93C7
:102C10000CD00F9007FC905808953EF018CF60E05C
:102C200070E080E89FE308954FE79F775F934F93AD
:102C30003F932F939ED02F913F914F915F9152DF01
:102C400005C019F40EF0FDCE46CF01CF2ADFC8F340
:102C50009638C0F707F80F92E8942BE33AEA48EB6E
:102C60005FE74EDF0F920F920F924DB75EB70F9254
:102C7000C0D0E6E9F0E016D04F915F91EF91FF915F
:102C8000E595EE1FFF1F49F0FE57E0684427EE0F61
:102C9000441FFA95E1F74195550B32D00F9007FE8E
:102CA00026C00895DF93CF931F930F93FF92EF9267
:102CB000DF927B018C01689405C0DA2EEF011EDFE4
:102CC000FE01E894A5912591359145915591AEF37A
:102CD000EF0166DDFE019701A801DA9479F7DF9034
:102CE000EF90FF900F911F91CF91DF9108959B017D
:102CF000AC0160E070E080E89FE3A9CDA2CEACC05B
:102D0000D0DEE8F39923D9F3940F511DBBF3915012
:102D1000504094F059F0882332F0660F771F881FD7
:102D200091505040C1F79E3F510544F7880F911DC7
:102D30009695879597F908955F3FACF0983E9CF083
:102D4000BB27869577956795B79508F4B1609395FD
:102D5000C1F7BB0F58F711F460FFE8CF6F5F7F4FEB
:102D60008F4F9F4FE3CFB8CE0EF076C070CE6894F1
:102D700068CE97DEC8F39923D1F3C6F3DF93CF93E0
:102D80001F930F93FF92C92FDD2788232AF02197E5
:102D9000660F771F881FDAF720E030E040E85FEB2E
:102DA0009FE3883920F0803E30F021968F77E7DC72
:102DB000EEEBF0E003C0E3DCEBEEF0E073DF8B0161
:102DC000BE01EC01FB2E6F5771097595771F880BBB
:102DD000990BD8DD28E132E741E35FE38FDEAF2DC9
:102DE0009801AE01FF900F911F91CF91DF91D8DC38
:102DF0003FCEFA01DC01AA0FBB1F9B01AC01BF57FC
:102E000028F422273327442750781FC0B75188F46D
:102E1000AB2F0024469537952795011CA395D2F337
:102E2000002069F0220F331F441FB395DAF30DD051
:102E3000A5CC61307105A0E88A07B94630F49B0142
:102E4000AC016627772788279078309621F0208379
:102E500031834283538308959F3F31F0915020F492
:102E6000879577956795B795880F911D9695879566
:102E700097F90895A1E21A2EAA1BBB1BFD010DC0F4
:102E8000AA1FBB1FEE1FFF1FA217B307E407F5071A
:102E900020F0A21BB30BE40BF50B661F771F881FF6
:102EA000991F1A9469F760957095809590959B018C
:102EB000AC01BD01CF010895EE0FFF1F0590F49105
:102EC000E02D0994662777270C941E18FC018827AB
:102ED0009927E89421912032E9F3293010F02E301F
:102EE000C8F32B3241F02D3239F4689404C00E94AB
:102EF000FC17820F911D219120532A30C0F31EF43C
:102F0000909581959F4F08959111FBC1803219F0E2
:102F100089508550D0F708950F931F93CF93DF9377
:102F20008C01FC0101900020E9F7CF01801B910B7F
:102F30000E94F60BEC01009719F0B8010E94C2172D
:102F4000CE01DF91CF911F910F910895FB01DC011C
:102F500002C001900D9241505040D8F70895FB01F6
:102F6000DC018D9181341CF08B350CF4805E619115
:102F700061341CF06B350CF4605E861B611189F3C3
:102F8000990B0895FB01DC0101900D920020E1F7FF
:102F90000895FB01DC014150504030F08D910190CB
:102FA000801919F40020B9F7881B990B0895FB01CB
:102FB000DC014150504048F001900D920020C9F7CB
:102FC00001C01D9241505040E0F70895453251052F
:102FD00020F4423010F00C94F117FB011082CB0169
:102FE0000895BB274A3031F4992322F4BDE290952D
:102FF00081959F4F0C9405187AE0979F902D879F9D
:10300000802D910D11240895BB27FB015527AA2778
:10301000880F991FAA1FA41710F0A41B8395505165
:10302000B9F7A05DAA3308F0A95DA193009779F7DD
:10303000B111B1931192CB010C949C19A0E0B0E0B6
:10304000E4E2F8E10C94BD198B016115710521F0E2
:10305000DB018C9311969C93EC015E01BFEFAB1AE0
:10306000BB0A7501C8808C2D90E00E948417892BC3
:1030700011F0E501F2CFEDE2CE1208C07E01F2E0E0
:10308000EF0EF11CC980DD24D39409C02BE2C212DB
:1030900005C07E0142E0E40EF11CC980D12CE7019D
:1030A000219743E050E060E771E0CE010E9484196F
:1030B000892BC1F4239645E050E06BE671E0CE0128
:1030C0000E948419892B09F425960115110519F020
:1030D000D801CD93DC93D11006C160E070E080E8A8
:1030E0009FE70AC143E050E068E671E0CE010E942C
:1030F0008419892B59F40115110509F4F9C0B2E0BE
:10310000EB0EF11CF801F182E082F2C0F70160E001
:1031100070E0CB01C0E0D0E07F01A0EDAA2EAC0CA6
:1031200029E02A1530F14D2D4260B42E2D2D287046
:10313000D2FE04C0211125C0219623C02111219760
:10314000A5E0B0E09B01AC010E94AC19660F771FAF
:10315000881F991F6A0D711D811D911D6839A9E98C
:103160007A078A07A9E19A0760F0BD2DB660BB2EE9
:1031700008C02EEFA2120AC0D3FC50C04D2D4860EB
:10318000B42E3196D701CC90DB2CC6CF2C2D2F7DC1
:10319000253409F043C0A081AD3241F4BD2DB061AA
:1031A000DB2E7F0122E0E20EF11C0CC07F01AB326E
:1031B00031F04FEFE41AF40A21E030E006C0A2E05B
:1031C000EA0EF11CA18122E030E0A053AA3018F0F1
:1031D000E21AF30A23C0F70120E030E02038BCE017
:1031E0003B075CF4A901440F551F440F551F240FE2
:1031F000351F220F331F2A0F311DAF014F5F5F4F65
:103200007A01A081A053AA3010F4FA01E7CFD4FECE
:1032100003C0319521953109C20FD31FD1FE09C0DA
:103220000115110531F0E1E0EE1AF108D801ED9237
:10323000FC920E94C0142D2D2370233019F04B01F5
:103240005C0106C04B015C01B7FAB094B7F8B094CA
:1032500020E030E0A901C501B4010E9423148823B5
:1032600009F43EC0D7FF06C0D195C195D10907E842
:1032700011E002C00FE911E06801B8E1CB1AD108F2
:1032800090E2E92EF12CCE15DF0574F0F8012591BE
:10329000359145915491C501B4010E9472154B01BD
:1032A0005C01CE19DF09EFCF04501109F594E794C2
:1032B0000C151D0541F78A2D880F8B2D881F8F3F18
:1032C00049F020E030E0A901C501B4010E942314B7
:1032D000811106C082E290E0909379038093780395
:1032E000C501B40109C060E070E080E89FEF04C050
:1032F00060E070E080EC9FE7CDB7DEB7ECE00C94C7
:10330000D919992788270895FB01DC0141505040C5
:1033100088F08D9181341CF08B350CF4805E6591C2
:1033200061341CF06B350CF4605E861B611171F327
:10333000990B0895881BFCCFDC01FC01672F71916C
:103340007723E1F7329704C07C916D93708362918B
:10335000AE17BF07C8F308950E94EE19A59F900D00
:10336000B49F900DA49F800D911D112408952F925C
:103370003F924F925F926F927F928F929F92AF9205
:10338000BF92CF92DF92EF92FF920F931F93CF9352
:10339000DF93CDB7DEB7CA1BDB0B0FB6F894DEBFE9
:1033A0000FBECDBF09942A88398848885F846E840F
:1033B0007D848C849B84AA84B984C884DF80EE8059
:1033C000FD800C811B81AA81B981CE0FD11D0FB662
:1033D000F894DEBF0FBECDBFED010895A29FB001EE
:1033E000B39FC001A39F700D811D1124911DB29F39
:0E33F000700D811D1124911D0895F894FFCFDA
:1033FE000000FA430A0000007A03800061006200B8
:10340E004E6F2072656369706520646174610A0095
:10341E00496E76616C696420616D6F756E7420748F
:10342E007970650A00496E76616C696420626F740A
:10343E00746C654E756D20747970650A00726573D3
:10344E00706F6E736500756E6971756549440065C0
:10345E0072726F72002D002E0022006E756C6C0061
:10346E0066616C736500747275650000000000E79C
:10347E0003A81129045904FF03E003DC0300000034
:10348E0000E30EA8118F0EB80E9F0ED80E0000008E
:04349E0000531100C6
:00000001FF
